:020000022000DC
:1060000070940020BDCA020011B7040091CA0200BA
:1060100091CA020091CA020091CA02000000000069
:1060200000000000000000000000000005C80200A1
:1060300091CA020000000000BDC7020091CA020020
:1060400081C8020011FA030081C8020081C8020061
:1060500081C8020081C8020081C8020081C8020014
:1060600081C8020081C8020081C8020081C8020004
:1060700081C8020081C8020081C8020081C80200F4
:1060800081C8020081C8020081C8020081C80200E4
:1060900081C8020081C8020081C8020081C80200D4
:1060A00081C8020081C8020081C8020081C80200C4
:1060B00081C8020081C8020081C8020081C80200B4
:1060C00081C8020081C8020081C8020081C80200A4
:1060D00081C8020081C8020081C8020081C8020094
:1060E00081C8020081C8020081C8020081C8020084
:1060F00081C8020081C8020081C8020081C8020074
:1061000053B94AB9002908BF00281CBF4FF0FF311E
:106110004FF0FF3000F00CB8ADF1080C6DE904CE83
:1061200022F070FDDDF804E0DDE9022304B07047E1
:10613000704700BF0000000073B5404DD5F85431E2
:10614000996811F0010123D101AA40F6034007F03C
:106150003DFB044600286ED1019CA3681B78A3B9BF
:1061600008F0C4FDBFF35B8F2B4653F8CC2FBFF371
:106170005B8F02F00502BFF35B8F53E8001F43E81B
:1061800000200028F9D1BFF35B8F20461DF0A4F951
:1061900001AA002141F2030007F018FB0446002881
:1061A00049D1019E2648B1680822013125F06DFBD6
:1061B00030461DF091F9214601AA41F2010007F095
:1061C00005FB0446002836D1019883685A7885F883
:1061D0006820D9789A7842EA0122A5F86A201A79CB
:1061E00085F86920197ADA7942EA0122A5F86C204B
:1061F0005A799B7942EA0323A5F86E301DF06CF9B9
:10620000214601AA41F2020007F0E0FA044690B9E3
:10621000019E0C48B1684022013125F036FB094847
:1062200025F0E7FB30461DF057F995F874305A0613
:106230000AD46FF01204204602B070BD00000020A6
:106240007000002078000020214601AA42F20300DD
:1062500007F0BCFA04460028EDD1019EBA48B168A7
:106260000822013125F011FB30461DF035F9214699
:1062700001AA42F2020007F0A9FA04460028DAD186
:10628000019CA368B3F80120A5F8FC2091B221B1CC
:10629000DA78AE4811462AF025FA20461DF01CF99E
:1062A00095F8746016F0200600F0218195F894307E
:1062B0001B0712D501AA002142F21C0007F086FA42
:1062C00004460028B7D101988368D3F80120D3F899
:1062D0000530C5E936231DF0FFF895F8D0309E064D
:1062E00023D50DF10201684625F00AFE0446002878
:1062F000A1D1042142F2240007F00CFA064600283E
:1063000000F0FC800421083029F08EFABDF800303E
:106310000380BDF8023043802246314642F2240019
:1063200007F054FA0446002885D195F8D0305C0671
:1063300010D501AA002142F22A0007F047FA0446CC
:1063400000287FF478AF019883685B7885F818316E
:106350001DF0C2F8082142F2010007F0DBF9044603
:10636000002800F0CB800821084429F05DFA95F858
:10637000D01011F0400F024640F2022308BF032361
:1063800088074CBF43F02C0043F00C008B0695F8B7
:10639000D13048BF40F0400013F0090F95F89A3013
:1063A00018BF40F4006003F00603CE0748BF40F07A
:1063B0001000062B08BF40F4C070002125F05CFCE3
:1063C0002146002242F2010007F000FA04460028AC
:1063D0007FF431AF95F87430B5F8FC10980600F1F1
:1063E000A280D9B901AA41F2050007F0EFF90446ED
:1063F00000287FF420AFB5F8FC30019C5BB9A3689E
:106400005A78997842EA0122A5F8FC209A884F48E8
:1064100011462AF067F920461DF05EF8082140F683
:10642000014007F077F90446002867D008210844A6
:1064300029F0FAF995F8D030D907024679D540A16C
:10644000D1E9000125F018FC2146002240F6014068
:1064500007F0BCF9044600287FF4EDAE014601AA1E
:106460004FF6014007F0B2F9044648BB01981DF011
:1064700033F8214601AA4FF6024007F0A7F9044677
:10648000F0B9019E3248B1680222013125F0FDF9D0
:1064900030461DF021F895F8B9305B0710D501AAF8
:1064A00021464FF6034007F091F948B9019C29486D
:1064B000A1680122114425F0E8F920461DF00CF8EE
:1064C00025F0E1FF044600287FF4B5AE09F022FD77
:1064D000044600287FF4AFAEEB79002B3FF4ABAE5F
:1064E00004211D4825F058FB07F008FDA3E6022112
:1064F00040F66D4007F00EF9044610B96FF06804DD
:1065000099E60221083029F08FF9012303704670C3
:106510002146324640F66D4007F058F904460028FF
:106520003FF4C4AE87E600297FF478AF6FF004042F
:1065300081E60A484FF0005184E700BFAFF30080C6
:106540009088000200800020D00000200001002080
:10655000B9000020B8000020CC0000201088000204
:106560002DE9F843D0E90B35D0F828805C19303498
:10657000A0450F46164619D81D4DA3FB05011AA3C9
:10658000D3E90023FFF7BCFD0346A4EB0800A0FB02
:10659000050123F07F4414A3D3E90023FFF7B0FDE6
:1065A00020F07F403C603060BDE8F883DFF8409029
:1065B0000DA3D3E90023A8FB0901FFF7A1FD0446C1
:1065C00005F1300008A3D3E90023A0FB0901FFF780
:1065D00097FD24F07F4420F07F403C603060BDE8B0
:1065E000F88300BFAFF300808D49FD1A070000005B
:1065F00000CA9A3B000000002DE9F04F91B000283E
:106600004BD0754C94F86A5015F001055CD194F8A4
:106610002500FF2300F0030084F8263018F092FDD7
:1066200094F86A00470729D494F8292094F8353063
:1066300004EB820204EB8303D76AD3F8389087B166
:106640006548394612F0F4F83B785E0605D5062118
:106650000DF08EF9002800F00A825F48494612F0DA
:10666000E7F83B7813F00E0F33D1236A002B00F0CC
:10667000BF800C25284611B0BDE8F08F2A4604F1F2
:106680006B01C0F3C00018F0F1FEFF2884F826006B
:10669000CAD0284618F09CFDC6E74F4B93F86A20F5
:1066A000D20711D51A6A52B192F8201041F00201B6
:1066B00082F820101B6A93F82030DB07D9D411B080
:1066C000BDE8F04F11F0B8BD0025284611B0BDE877
:1066D000F08F94F824300121C3F342030CA88DF805
:1066E00030300DF0CFFA00286BD099F80110024637
:1066F000384611F051FE3949B4F86890312300262C
:10670000A360A0FB010132A3D3E90023C4E905661D
:1067100026706660E660FFF7F3FC20610EF0BEFCB9
:106720008046B9F1000F07D13E7806F00F06A6F1BA
:106730000106B6FA86F6760994F8240066F300009E
:1067400010F0010684F8240040F060812369244A97
:106750002448049303F24713A9FB00010694029610
:106760001360912303FB09111F4B07931F4B0593E4
:106770004FF6FF7309924FF0020903930EAF14A373
:10678000D3E90023CDF838900897FFF7B9FC4346CA
:10679000CDE900604A46304603210EF0FDFA394645
:1067A00010F080FF68B994F86A3043F0010384F870
:1067B0006A3012F02BFA002886D1012018F0A4FCD0
:1067C00058E7236A002B3FF454AF11F0F3FC50E775
:1067D0008D49FD1A070000005C51002000CA9A3B59
:1067E000D4510020002AE784A16B03001184030028
:1067F00010F0A2FE8246002800F0418110F0A8FEB1
:106800008346002800F0388113F0D4F806460028AB
:1068100000F02F814FF6FF73406F338506F11C03A4
:106820000B93002800F02D8106F1680206F1640147
:106830000DF0AAF8B6F86030944923F4EF6323F022
:10684000070343F4887343F00103A6F8603096F819
:10685000393003F03F0363F07F0386F8393096F850
:106860007A3023F0070386F87A3096F83C3023F02C
:10687000070386F83C3096F8D6304FF0000868F3EE
:10688000000386F8D6304FF01B13C6E916310622F6
:106890004FF6FF73A6F8C020C6E91288C6F87480C8
:1068A000A6F87880A6F82E80C6F8308086F83B805F
:1068B000C6F85080A6F8C480A6F8C880A6F8D08094
:1068C000A6F8CC800DF13101ADF834308DF83630BA
:1068D00006F1D7006FF0FF030C9324F0D6FF96F873
:1068E000D6106FF0FF0368F3410186F8D610062238
:1068F0000E930DF139014FF6FF7306F1DD00ADF88F
:106900003C308DF83E3024F0C0FF96F8E430A6F815
:10691000F08023F0070386F8E43086F8F280C6F8AA
:106920001481A6F81881A6F8308110F0D3F896F8F3
:106930004A31A6F8488123F0030386F84A3196F8D5
:106940007A30A6F8508123F0180386F87A3096F84A
:10695000763186F8538123F0070386F8763196F86E
:106960009631C6F854A168F3451386F8963196F827
:10697000BE31A6F8748168F3C303002286F8BE31E5
:106980000023C6E94E01C6E9502386F8E580A6F843
:106990009481C6F8EC80A6F8BC81A6F8C88113F0F3
:1069A0006DFBA6F8D20013F06FFBD6F8CC21384B64
:1069B000A6F8D4001340C6F8CC3113F06BFB96F860
:1069C000D03160F3020386F8D03113F069FB06F191
:1069D0001C03236296F8D031C6F8D48160F3C50356
:1069E000C4E918ABC6E97888C6E97688C6E905889F
:1069F00086F80080F66186F8D03119F067FD00282E
:106A00003FF467AE11F0D6FB032533E62369214A34
:106A1000DFF884900493002002260EAF01930592C4
:106A20000321CDE902000694434600900897CDF873
:106A30001C9032460E960EF005FA394610F032FEE2
:106A400000287FF4BEAE154A05924AF2D832009271
:106A5000CDE90300CDE90100CDF81C90089706941C
:106A60004346012203210E960EF0ECF997E612251B
:106A700000E6584610F072FD504610F063FD072501
:106A8000F8E506F16C007067CEE600BF48014801EA
:106A90000000FFF611840300A16B03003D7F03009B
:106AA00070B590F824308AB0C3F342030D46044613
:106AB00001210DF1230016468DF823300DF0E2F888
:106AC00071780246284611F067FC1D491AA3D3E9E4
:106AD0000023A0FB0101FFF713FB23699842054641
:106AE00020D21B1A00220192164A0293164BA21AB8
:106AF000A3FB02320221920900230A4409AE099144
:106B000012490591CDE903330321D2B206960093D1
:106B100018460EF00BFA314610F0C4FD48B9256155
:106B20000AB070BD02D9C21A0023DCE700200AB007
:106B300070BD0C200AB070BD8D49FD1A0700000021
:106B400000CA9A3B5C51002089888888A16B0300A9
:106B500038B5194C9DF810E094F844C01CF00105BC
:106B600022D163F3420C400194F83230A1874FEAFE
:106B7000CE0E0EF0180E00F0200040EA0E0023F0BA
:106B8000380303430D4884F832309121A2FB0003FF
:106B900001FB023106A3D3E9002384F844C0FFF7C8
:106BA000AFFA2064284638BD0C25284638BD00BF02
:106BB0008D49FD1A07000000F8510020002AE784E3
:106BC00010B504469DF8080022844FEA411CC0001D
:106BD000A17D00F018000CF0200C4CEA000C0C48D1
:106BE00021F038014CEA010CA3FB0002912101FBCA
:106BF000032184F816C004A3D3E90023FFF780FA29
:106C0000606210BDAFF300808D49FD1A07000000DF
:106C1000002AE784000000002DE9F047044600F157
:106C2000350190F8440094F83230C0F3400060F32E
:106C300086138CB084F832300EF068FA94F8322063
:106C4000A38F4D48E46102F07902002584F83220D8
:106C50009121A3FB000201FB0321C4E9055544A3D4
:106C6000D3E900232570FFF74BFA3123C4E9015320
:106C7000236CE5600933A0F13102934232BF2361F6
:106C80002261256406460EF009FA236A07460DF1D3
:106C90002C08002B4CD0394D394BCDF82080069470
:106CA000651BA3FB05353448A38F4FF0000AA3FBF7
:106CB0000002CDF80CA0912101FB0321236904936C
:106CC000304B0793304B05934FF0020928A3D3E9CB
:106CD0000023CDF82C90FFF713FA104619464FF415
:106CE0007A720023FFF70CFA2D090435EDB22A461B
:106CF000CDE901603B460321CDF800A050460EF0DF
:106D0000A1F8414610F0CEFC054668B994F844302D
:106D100043F0010384F8443011F060FD0446F8B1FB
:106D200028460CB0BDE8F0870C200CB0BDE8F08719
:106D3000CDE90A33216943460AAA032001F0E0F9AC
:106D40000B990029A7D0114809A3D3E90023A1FB7F
:106D50000001FFF7D5F90A9B20F07F471F449AE70F
:106D6000484618F0D1F920460CB0BDE8F08700BFC6
:106D70008D49FD1A07000000002AE784F851002021
:106D8000398EE338A16B0300058A030000CA9A3BE1
:106D90002DE9F04FC38D458EB0F8F4601D4490F896
:106DA0001A31ADB22944174613F007028BB00446DE
:106DB00089B20AD0531E042B00F27683DFE813F069
:106DC000C40135029E014D013802891B1FFA81F86A
:106DD000090400F16D8190F93930002BC0F26C820A
:106DE00094F8F03084F8F13094F8942194F89531C7
:106DF00094F8181184F8191193420AD094F8963136
:106E000003F00F03062B04D1002384F89521A4F886
:106E1000C830BF4BD4F814911A68944204BF0022C2
:106E20001A60B9F1000F00F05981D9F8000000286C
:106E300000F05481628DB4F81C314168C4F814111B
:106E40009342B4F81E2100F03F82B4F82011B4F848
:106E500028C0A9F81E30182389F804300023A9F8A7
:106E600006C0A9F82020A9F8221089F81C3049464C
:106E700010F07AFB10F082FBA368002B09DAE168BE
:106E8000626823F0004391422CBF7F18BF18A360B3
:106E9000FF1A618DB4F81C9111FB08F189B2B1FBA6
:106EA000F9F319FB03F080B281421FFA83FA80F0F4
:106EB0000481401A40F2E242964902FB00F0A0FB36
:106EC000010191A3D3E90023FFF71AF920F07F40D5
:106ED0000744E38D1E4494F93930761B564440F242
:106EE000E24B002BE6850BFB09F6C0F21082D4F8CA
:106EF0002411884884A3D3E90023A1FB0001FFF7F4
:106F0000FFF820F07F48354608F10108824AB4F8BE
:106F10002031B4F81E018149A4F82A903244B2FB12
:106F2000F6F2A4F8C62042F2107202FB0363314469
:106F3000013BB1FBF6F1B3FBF6F38AB2A4F8C23021
:106F4000831D9A42A085A4F8CE2004DDC0F57F43BE
:106F5000FA331A4492B294F81A31A4F8CA201B07E3
:106F600044BF0023A4F8C430022101201BF0F8FF25
:106F700000220221814601200CF056FD68494FF4A1
:106F8000F87220460CF0E0FC00F1050A5FFA8AFA7C
:106F9000644B00945246012100200DF0DFFF30F0D9
:106FA00002030CD0604A6149614840F6CB4322F0AD
:106FB00061FB404080F311884FF0030002DF554E23
:106FC000A5FB066B50A3D3E9002330465946FFF7D3
:106FD00097F8584B20F07F45A5FB03310722F01AA4
:106FE00002FB05116BEB01014FF47A720023FFF7EE
:106FF00087F8CDE9015008940694CDF80080216906
:1070000094F939504C4804914C494D4C079411EA7D
:10701000250138BF014605914FF6FE713B460391AD
:107020005246012100200DF00DFF30F002030CD07C
:107030003D4A3E493E4840F6E54322F01BFB4040B6
:1070400080F311884FF0030002DFB9F1000F40F028
:10705000588100200BB0BDE8F08F828D90F81A5156
:10706000D0F8F83006321144D0F8D42189B26FF349
:107070000205A0F8F4101981A3F1090084F81A514F
:1070800022B194F876118E0740F18F81D4F8D8118F
:10709000002900F0A381D4F8DC21116843F8091C11
:1070A000106053F8092CC4F8DC01002A00F0938129
:1070B0006FF076000BB0BDE8F08F09FB1311154897
:1070C00040F2E24389B203FB01F1A1FB00010EA3F0
:1070D000D3E90023FFF714F83F1AFAE6124A1949D8
:1070E00013484FF4426322F0C5FA404080F3118800
:1070F0004FF0030002DFD9F800009BE66FF00F00AD
:107100000BB0BDE8F08F00BF8D49FD1A07000000ED
:107110005452002000CA9A3BFF5962027FC3C90142
:10712000582D00200D91030070290500502A0500FC
:10713000602405008D49FD1A45DF030055DD03007D
:10714000B59003003C2A0500DFF82483012010F0ED
:107150001BFA0646002800F05281C6480CF0BEFB20
:107160000546002800F04B81C34B1A68002A00F046
:107170001A8110F027FA3368D4F814215A602B7959
:10718000C4F8146143F003032B710C236B710023CB
:10719000EB7194F828312B72B84AD4F82431A2FB51
:1071A00003239B0AA5F80930B4F81C31A5F80B306D
:1071B000B4F81E31A5F80D30B4F82031A5F80F3021
:1071C00094F81A31C4F8FC70032262F3020384F8C5
:1071D0001A31A368002B0ADAE168626823F00043E1
:1071E00091422CBF7F18BF18FF1AC4F8FC70A44B43
:1071F00001220935C4F8F85002211046C3E90248BB
:107200000CF046FC00283FF453AF9E4A9E499F482D
:1072100040F6733322F02EFA404080F311884FF08D
:10722000030002DF6FF0760014E7DFF864828DE779
:10723000D0F8F820D0F8D43190F8F00084F8F100BC
:1072400094F818018C4984F8190194F8940184F891
:10725000950100200860A2F10901C3B194F87601FC
:10726000800714D494F8CF01C70710D4D4F8E001F4
:10727000834200F0E080D4F8D80168B9187900F0B2
:107280000300032800F0E880C4F8D83106E0D4F801
:10729000D801002800F0AC80D4F8DC31186842F83E
:1072A000090C196052F8093CC4F8DC11002B00F0FD
:1072B000A9806FF08B00CDE690F8E530002B3FF40D
:1072C0008FAD80F8E5208FE5A18D9142B4F82011B3
:1072D0007FF4BDAD40F2E24E0EFB03FE42F2107CA5
:1072E0000CFB01EC0CF1FF3CBCFBFEFCB4F8C2E073
:1072F0001FFA8CFCE6457FF4AAAD012389F804301F
:10730000B5E50122022110460CF08EFBA1E6226CAD
:10731000A36C02FB1833A36419F02CF9054694F80A
:10732000E400DFF87081C0F3C20019F025F90544CC
:1073300006FB05F5584B94F8282105F5742505F250
:107340003F25A3FB0535AD0CA36C25640BFB02F2B6
:1073500005FB0AF0226572080344963A934228BF5F
:107360001346C4E911230023A0FB0801C4F8EC3044
:107370003DA3D3E90023FEF7C3FE404B3F1AD4F8E8
:107380002401A3FB0030800A0BFB00F0A0FB0801E6
:1073900035A3D3E90023FEF7B3FE751BB4F81C91A7
:1073A00020F07F48B2E51C60E3E694F8CF11CD07EA
:1073B0003FF56CAED4F8E0118A4228D0D4F8D81149
:1073C00000297FF468AE117901F00301032965D02B
:1073D000C4F8D82161E6C4F8E40169E643F8092C51
:1073E000C4E97500C4F8DC01002A7FF461AEF2E75D
:1073F00042F8093CC4E97511C4F8DC1156E76FF096
:10740000680027E6C4F8E4116FF08B0022E61168EB
:10741000C4F8E011D4F8D81100297FF43CAE11680B
:1074200043F8091C106053F8092CC4E97600002ABF
:107430007FF43EAECFE71868C4F8E001D4F8D80175
:1074400000287FF429AF186842F8090C196052F837
:10745000093CC4E9761129E7D8790328F3D00A2832
:107460007FF412AFEFE700BF8D49FD1A070000005F
:10747000A5E50300E8520020545200205917B7D167
:10748000C00A00207029050064270500602405005B
:10749000D182020000CA9A3B83DE1B43D1790329C3
:1074A000BDD00A2994D1BAE7074A0849084840F6EE
:1074B000C73322F0DFF8404080F311884FF003001B
:1074C00002DF4FF0000841E670290500C0240500E6
:1074D00060240500000000002DE9F04F0B68D2F891
:1074E00000B01B6897B08A460B93037F00F11E0122
:1074F000C3F380130446154614A806228DF84730BE
:1075000024F0C3F99AF811000D90FF280DF14808F6
:1075100000F0838042460DF1470117F0F3FA9DF821
:1075200047600236F6B28DF847600B9B277FD4F890
:1075300000C0CDF830C003F17109FF09434606F0E1
:1075400001024946384612F0B1FD00284BD19BF8A4
:10755000D6200E9066F341028BF8D62041460622D3
:107560000BF1DD0024F091F99BF8D62067F30002BF
:1075700049468BF8D6200BF1D700062224F085F976
:107580002F1D032204F12E0105F1080024F07DF9DE
:1075900005F11806042204F12A01384624F075F991
:1075A000052204F13A01304624F06FF930460521F6
:1075B0000CF068FB6A7F94F83F6000F03F0060F3D6
:1075C00005026A77C6F30402AA77A18EE981012831
:1075D00089B206F01F0206D91B3202F01F020B2AE5
:1075E00001D80E9B09BB0B9BE6680C9800225A61E0
:1075F00095F82030012762F3000385F820302146FA
:1076000027710FF0B1FF3068377131460FF0ACFFD2
:107610000FF0B4FF17B0BDE8F08F062214A9404662
:1076200024F033F99DF847607FE7DAF800205360D3
:1076300094F8372094F8363043EA02232B829BF8E3
:10764000E430628E0F92760966F3C5038BF8E4305E
:1076500040F2E24606FB01F918F08CFF0E909BF811
:10766000E400C0F3C20018F087FF0E9BC24A298ACB
:10767000034409FB03F303F5742303F23F23A2FB46
:1076800003239B0C6B6294F83130BC4A06FB03F376
:10769000AB634FEA5903963BAB62268FB84B42F27D
:1076A00010704A44B2FBF9F2ABF8C620B2B200FB4C
:1076B00002924B44013A881DB2FBF9F2B3FBF9F395
:1076C000ABF8C2209AB28242ABF8CE2004DDC1F5FD
:1076D0007F41FA310A4492B2ABF8CA2039460422FB
:1076E0000BF1E80024F0D1F8234613F81C2FC2F365
:1076F00040120E92DA0700F106814FF48073A383E3
:107700000B9B93F8260017F0CDFF002800F0ED80CA
:10771000062204F1240104F12B0024F0B6F80D9B9D
:10772000FF2B00F0E98014A9062204F1250024F0C3
:10773000ACF89DF84730A3774146062204F11F00BC
:1077400024F0A3F89BF8E430EA896286C3F3C2030D
:107750002A8AA28684F83830E686584612F036F92E
:107760002146A881E080DAF804400C980FF0FCFE76
:10777000AB89E3801B2323710E9BD4F80080002B80
:1077800040F0D6800E9E2677214640460FF0ECFE54
:107790000FF0F4FE95F84500B5F84060B5F84240AA
:1077A000012100F0070018F0F3FC344404F5E17403
:1077B00021188046734800273123CBF80830A1FBFD
:1077C00000016BA3D3E90023CBF80470CBF80C7055
:1077D000FEF796FC0F9ADAF80C406E6A40F2E2432C
:1077E00020F07F4003FB024402213A46CBF8100010
:1077F00001200CF019F90B9D284610F0D5FF821CD2
:10780000614B0095D2B2384601210DF0A7FB04F27E
:10781000B2440128A9EB0606A4EB080400F092800C
:107820000B9B93F82430DB077AD4584612F0CEF83D
:10783000DFF85091A6FB09864DA3D3E90023054646
:1078400031464046FEF75CFCDAF808304F4A0792B2
:10785000A3F13A0A4E4BCDF818B020F07F47A7FBB2
:107860000331B8EB03004B4B05934FF4E4730893DB
:10787000DBF8103004934FF0000303934FF007033D
:1078800003FB071166EB01014FF47A720023FEF748
:1078900037FC37A3D3E90023CDE90170A4FB09012C
:1078A000FEF72EFC053520F07F40EDB200905346E8
:1078B0002A46012100200DF0C5FA30F002030CD059
:1078C000354A3649364840F2C91321F0D3FE4040CC
:1078D00080F311884FF0030002DF012202211046DD
:1078E0000CF0A2F817B0BDE8F08F0146062204F1B3
:1078F0002B0023F0D5FF12E70622002104F125001A
:1079000023F0CEFF15E7244A26492548F12321F02C
:10791000B1FE404080F311884FF0030002DFECE637
:10792000002301220093184611460DF017FB7CE757
:107930006B7F43F0400338466B7716F0DFFE01267D
:10794000E88320E70FF0EEFE0B9B83423FF468AF25
:10795000114A1549124840F29F2321F08BFE404006
:1079600080F311884FF0030002DF59E7AFF3008086
:107970008D49FD1A0700000083DE1B43FF59620298
:107980007FC3C90100CA9A3B19DD0300E9DC03008B
:107990008D49FD1A55DD0300582B0500502A0500BE
:1079A0006024050070250500B42B050000000000D0
:1079B0002DE9F04F8BB01F46BDF858300693CDE946
:1079C0000401BDF860309DF85490BDF85CB003939D
:1079D0000020164611F028F9002800F0B78109F0C0
:1079E0000108054640460DF081FB0290B8F1000FFA
:1079F0006AD1149B02993A46404612F057FB002880
:107A000040F0B5812B6A05F11C020792002B62D071
:107A1000D5F820A0DAF8004007F0010B9AF84400EE
:107A2000C0F3C00100F0070018F0B0FBBAF8401036
:107A3000BAF8423000F5E1700144D7481944A1FB7F
:107A40000001D3A3D3E90023FEF75AFB20F07F40C7
:107A50002061304617F098FB95F833306FF34103FF
:107A600085F83330FF2385F83430002E00F0728122
:107A7000A9F10203012B40F27E8195F8443014995C
:107A800069F3420385F8443095F833306BF3000313
:107A900085F83330062205F1240023F0F6FE039B1F
:107AA0002B8605F11C00DDE9042300210096FFF779
:107AB00087F818F00BFD002840F07A812846FFF780
:107AC000ABF80BB0BDE8F08F06210BF051FF00289A
:107AD0008FD11220F5E70FF02FFD0790002800F05E
:107AE000A28111F067FF0446002800F0BA8120301F
:107AF0000CF0DCF804F11C0A002840F0838103211B
:107B000004F1240018F0F0F9069B606F63854FF6CE
:107B1000FF73A4F82CB02385002800F0808104F1C5
:107B2000640104F168020BF02FFFB4F860309B4A47
:107B300023F4EF6323F0070343F4887343F0010356
:107B4000A4F8603094F87A3023F007034FF0000B6C
:107B500084F87A304FF01B13C4E91632C4F874B0BD
:107B6000A4F878B0A4F82EB0C4F830B004F1340012
:107B700016F07AFD94F8393060F30503012184F89A
:107B800039300DF1270018F0AFF99DF82720844B0C
:107B9000DDF80CC0A08D84F83BB0A3FB0213DB081A
:107BA00003EB4303A2EB830294F839300699A4F85F
:107BB000C4B003F03F0384F8393094F83C30A4F8A3
:107BC000C8B0053223F0030384F83A2084F83C302F
:107BD00040F2E242734BA4F8D0B002FB01F10A4636
:107BE0000B44B3FBF1F37049A4F8CCB01144B1FBE2
:107BF000F2F1A4F8C61042F2107101FB0C21013918
:107C0000B1FBF2F2A4F8C2200622A4F8C020811D24
:107C10009AB28A42A4F8CE2002DD063A121A92B233
:107C200094F8E430A4F8CA2023F0070384F8E43081
:107C30000023A4F8F03084F8F230C4F81431A4F82A
:107C40001831A4F830310EF045FF94F84A21079B13
:107C5000C4F8543122F0030284F84A2194F87A20BF
:107C600022F0180284F87A2094F8762122F0070294
:107C700084F8762194F89621002363F3451284F862
:107C8000962194F8BE21A4F8483163F3C302C4E9F5
:107C90004E0100210020A4F8503184F85331A4F89B
:107CA0007431A4F89431A4F8BC31A4F8C831C4E903
:107CB000500184F8BE2112F0E1F9A4F8D20012F0CC
:107CC000E3F9D4F8CC11394AA4F8D4000A40C4F836
:107CD000CC2112F0DFF994F8D02160F3020284F88D
:107CE000D02112F0DDF994F8D021149960F3C50287
:107CF00084F8D02194F8D62007F0010B6BF34102F1
:107D0000002384F8D6203122C4E97833C4E97633DD
:107D1000C4F8D4316360E360A26004F1DD000622A0
:107D200023F0B3FD94F8D620029969F3000284F899
:107D3000D62004F1D700062223F0A7FD0023C5F8C2
:107D400020A0C4E905332370E46167E60C200BB082
:107D5000BDE8F08F17F054FE00283FF489AE149967
:107D60003846324617F082FB85F8340080E60B2057
:107D70000BB0BDE8F08F002017F02AFA95F83330E9
:107D800043F00203C14685F8333076E6AFF3008056
:107D90008D49FD1A0700000000CA9A3B48014801BE
:107DA000ABAAAAAA7FC3C901FF5962020000FFF66D
:107DB0002C6AA36D63B12D4A2D492E484FF4976369
:107DC00021F058FC404080F311884FF0030002DF9F
:107DD00004F14C0104F148000BF0DAFD06460028DE
:107DE00031D02768A665D7F85441F4B120460FF08A
:107DF000A9FB384611F0E4FD002303202B620BB0F1
:107E0000BDE8F08F194A1C491A48BF2321F032FC03
:107E1000404080F311884FF0030002DF6FE604F169
:107E20006C0060677BE607204BE6104A1349114857
:107E300040F2C14321F01EFC404080F311884FF016
:107E4000030002DFD2E7094A0C490A4840F2BA436C
:107E500021F010FC404080F311884FF0030002DF56
:107E6000BFE707980FF06EFB07202AE6E42B05001A
:107E70009C280500602405003C260500C829050053
:107E80002DE9F04707468CB0044617F81C9F0E46B4
:107E9000154600F1240106220AA823F0F6FC94F806
:107EA0001C80FB07C9F3C019C8F3401800F1F98022
:107EB0000023A383B17C777C11F001014FF006020F
:107EC00000F0D98004F11E0104F12B0023F0DDFC49
:107ED000FF2F00F0D780384604F11F0204F11E0185
:107EE00016F010FEA37F02330AA9A377062204F13D
:107EF000250023F0CAFC3368D3F80090EB89638631
:107F00002B8AA386B9F83030E38618F031FB84F869
:107F100038002F68384611F059FDD6F804A0A88122
:107F20002146E08020680FF01FFBAB89AAF80630DD
:107F30001B23DAF800408AF80430B8F1000F40F053
:107F4000BE80514620468AF81C800FF00DFB0FF0D2
:107F500015FBBA687B6895F84400B5F80E80F468A4
:107F60009A4238BF1A46C0F3C00140F2E24300F023
:107F7000070003FB08F8924618F008F920340022A5
:107F80000221241A01200BF04FFD484610F024FE78
:107F9000021D534BCDF80090D2B2012100200CF00D
:107FA000DDFF30F002030CD04E4A4F494F4840F2FB
:107FB000C93321F05FFB404080F311884FF003008C
:107FC00002DF4FF000094B4603220121CDF800905B
:107FD00048460CF0C3FF384611F0F8FCB668093E7D
:107FE000A6EB0A06DFF808A105463BA3D3E9002368
:107FF000A8FB0A01FEF784F819463E4B07933E4B57
:10800000059340F2F933069708933B698046CDE922
:108010000393104600234FF47A72FEF771F82EA3F3
:10802000D3E90023CDE90180A4FB0A01FEF768F83B
:10803000053520F07F40EDB2009033462A460121FD
:1080400048460CF0FFFE30F002030CD0254A2649CA
:10805000264840F2FA3321F00DFB404080F31188AE
:108060004FF0030002DF0122022110460BF0DCFC7E
:108070000CB0BDE8F08704F12B0023F011FCFF2FBA
:108080007FF429AF0622002104F1250023F008FC2B
:1080900084F81E900AA9062204F11F0023F0F5FBC4
:1080A00029E7104A154911484FF4527321F0E2FABA
:1080B000404080F311884FF0030002DFF8E66B7F49
:1080C00043F040036B77281D16F018FB4FF00108B2
:1080D000E88336E7AFF300808D49FD1A0700000002
:1080E00011DF0300E42B0500502A05006024050081
:1080F00000CA9A3B15DF030045DF03007025050029
:108100002DE9F04F8FB01E464FF0FF090993154639
:1081100000230A1D8DF82F90CDF81090DFF8008114
:10812000DFF800B1DFF800A1DFF80091336004460A
:1081300008920C93059306930DAF0CAE02230D939A
:10814000CDE9018700962B460DF12F022146002034
:108150000CF046FF02282FD00D9B002B32D19DF84A
:108160002F00FF283ED00538C3B2052BE6D880B2D9
:1081700011F034FC0028E1D090F93930002BDDDB20
:10818000049902690C9BFF290CD0069907921846A6
:1081900004930CF085FF059B089A99188842049B6C
:1081A000079A22D8CDE905239DF82F300493C5E71F
:1081B000214600200CF05AFF0D9B022BF8D00D9B9E
:1081C000002BCCD073235A465146484621F052FA30
:1081D000404080F311884FF0030002DF9DF82F002C
:1081E000FF28C0D1049BFF2B10D0DDE905321048D9
:1081F0001344A3FB0002072101FB032106A3D3E9DB
:108200000023FDF77DFF099B803018600FB0BDE8AB
:10821000F08F00BFAFF3008000CA9A3B000000005F
:10822000E9E20300302C0500742C050060240500F1
:108230008D49FD1A0000000070B582B01C46019205
:108240001546064601AA0220FFF75AFF23680BB322
:108250000198431B1B021FD429460CF021FF1A4A28
:1082600003460721A0FB020201FB032114A3D3E96B
:108270000023FDF745FF22680244002A226009DB43
:1082800040F2E24303FB06F0904203D2121A82420C
:10829000FCD8226002B070BD014628460CF000FFF9
:1082A000094A03460721A0FB020201FB032104A3A4
:1082B000D3E90023FDF724FF2268121ADDE700BF8F
:1082C00000CA9A3B000000008D49FD1A0000000022
:1082D0002DE9F041B0F8A41188B0044640F2E24321
:1082E0003F4803FB01F10623002605AD8DF80F3052
:1082F000A1FB000138A3D3E90023C5E90166059677
:10830000FDF7FEFE0DF10F0301950093B4F89A31CD
:10831000049004AA2046012115F0E8FF9DF80F8083
:1083200008F1FF33DBB20DF11602304604F5D277C7
:1083300002EB430C04F5D8764FF6FF7E3A88B8F18D
:10834000000F0AD02B46724504D0198891424FF095
:10835000010015D002336345F5D10237BE42EDD19D
:1083600018BBBDF81430D4F8F81040F2E24203FB19
:1083700002F2180AC4F824210B70487004220BE0A2
:10838000D4F8F81040F2E24302FB03F3100AC4F8F9
:1083900024310A704870042294F81A3162F30203FF
:1083A00084F81A3108B0BDE8F081D4F8F83013F839
:1083B000052C03210A43112003F8052C03F8041CA3
:1083C00020220F211A7003F8020C03F8011C052269
:1083D000E2E700BFAFF300808D49FD1A07000000FF
:1083E00000CA9A3B0000000038B5044618F050FF60
:1083F000A37DA27DC3F34103013303F00303032BE9
:1084000008BF002363F3420214BF03F125002520B7
:10841000A27517F079FE63680BB32369FBB11AF0FC
:1084200029FC05460CF03AFEC11C00201AF0F0FBB6
:108430001AF06CFC1AF01EFC29460CF031FE104AB2
:1084400003460721A0FB020201FB03210AA3D3E993
:108450000023FDF755FE23691B1A236138BD0CF07C
:108460001DFEC11C00201AF0D3FBBDE838401AF0F5
:108470004DBC00BFAFF3008000CA9A3B0000000073
:108480008D49FD1A000000002DE9F04F89B0044627
:108490001AF0D2F9C0B250B917F08EFE79482146D1
:1084A0001AF0A6F809B0BDE8F04F1AF09BB91AF01F
:1084B000E3F905461AF0FEFA83461AF005FB8146F9
:1084C0001AF01AFD06461AF0FBFC82461AF0B6FABC
:1084D000EDB280461AF098FA17F06EFE002DDDD04E
:1084E00001200FF0C7F90546002800F0BD801BF001
:1084F000FF0BF6B240F0AF80002E38D1FF275A466E
:108500003B463146204619F0EFF80028C6D0636894
:1085100000225FFA88F88DF81B20002B40D063689A
:1085200093F8203013F0020F2B7F03F00F013AD1A4
:10853000072940F0AF8003F00F03042BAED16B7F0F
:10854000252BABD8A37DDA07A8D51AF0A3F92B7F8A
:108550000278C3F38013B3EBD21F9FD108300622F9
:1085600005F11E0123F081F9002897D140E05FFA60
:108570008AF017F033F90746C1E7012940F0498135
:108580006B7F0C2B8AD12A7F009700230193D2099D
:1085900005F12403204618F0F9FF002840F08480FC
:1085A0002B7F03F00F01002940F033816B7F252BD7
:1085B0001A464ED8A37D9B0603D56368002B00F0B6
:1085C00039814523CB40DB0713D4012941D16B7F8F
:1085D0000C2B7FF463AF2A7F00970DF11B030193EF
:1085E000D20905F124030021204618F0CFFF80B303
:1085F0006A7F002A3FF452AF63682BB12B7F03F0F0
:108600000F03072B7FF44AAF03209DF81B900FF058
:1086100031F9054600283FF441AF0FF049F94FF614
:10862000FF73EB8005232B71B8F1000F40F0FE8043
:108630007F20AB7E2876002E08BFFF2769F3410319
:108640002868AB7629466F760FF048F90FF056F997
:1086500024E72B7F6FE7A07D5FFA89F1C0F3C000AC
:1086600017F052F807464AE7074A0849084840F217
:10867000C32320F0FFFF404080F311884FF0030038
:1086800002DF34E749130400943005004830050048
:1086900060240500A27D100740F1AB8000297FF423
:1086A0006CAF6B7F252BD4D804200FF0E3F80028A3
:1086B0003FF4F4AE1AF032FB636A804643B9238C70
:1086C00040F2712202FB03F3B0FBF3F203FB12084A
:1086D00023681A69BC4B0721A2FB030301FB02318B
:1086E000B7A3D3E90023FDF70BFDA0F242334345C6
:1086F000FFF4D4AE1AF07AF93846636816F0E0FF5A
:10870000E37D9A07814640F12781002800F024810B
:1087100083464FF001081AF0BDF82B7F07AA039299
:1087200005F11E0201468246C3F3801300922046E3
:108730000022CDE9018B18F0F1FF50461AF030F815
:108740001AF070F8002840F01D81A048214619F069
:108750004FFF6168A37D91F8202043F0800342F031
:10876000010281F82020A3750FF0A2F8162380469D
:1087700003714FF6FF732D7FC380514624221C30B6
:1087800023F083F898F81C30C8F80840C5F340156A
:1087900065F3451388F81C301AF06CFA0021C8F80C
:1087A00010000120079D1AF00BF8002E08BFFF27CC
:1087B00088F81970E37D2D1A13F00203C8F81450DD
:1087C00003D0B9F1000318BF012398F81A2063F30E
:1087D000000288F81A200FF06BF84146C8F80C0028
:1087E000D8F800000FF07AF809B0BDE8F04F0FF0AC
:1087F00085B8FF2F8DF81C70C3F3801900F08880B6
:10880000227ED21BB2FA82F25209002A7FF446AFCE
:10881000C9E606293FF4CAAE4523CB40D8077FF509
:10882000D4AE6A7F252A7FF6E4AECEE61AF0F8F8D9
:10883000C0B2FEE6962005931AF05CF9059B184637
:108840001AF02CF803200FF015F8814600283FF4A9
:1088500025AE0FF02DF84FF6FF73A9F8063005236B
:1088600089F80430B8F1000F72D17F23002E89F807
:10887000183014BF3B46FF2389F8193099F81A3095
:10888000D9F800006FF3410389F81A3049460FF018
:1088900025F80FF033F819F0FDFF2B7F0646C3F3E0
:1088A00080133278DB0102F0700243F003031343BC
:1088B00033700C233846737016F002FFE37D9F0778
:1088C00051D500284FD033780146304643F040035D
:1088D00000F8023B062222F0D8FF062205F11E0115
:1088E00006F1080022F0D1FF304619F059FF19F0C7
:1088F00099FF002854D11AF009FAA37D344843F0B7
:1089000001032146A37509B0BDE8F04F19F070BE10
:1089100005F11E0A07AA5146484617F015F8002827
:108920003FF43EAEE37D03F001034B457FF438AEE8
:108930005146062204F1080022F097FF2B7FB0FA7F
:1089400080F2520903F00F01002A7FF4A7AE2AE655
:108950001AF066F8C3B289E794F8168004F1190B8F
:10896000C8F38018D7E6A37D3278C3F3801330466E
:1089700063F3861200F8022B04F11901062222F09B
:1089800084FFAAE7134A1449144840F2914320F0A7
:1089900071FE404080F311884FF0030002DFD4E6FF
:1089A0000C4A0D490D4840F2165320F063FE40403A
:1089B00080F311884FF0030002DF9CE7AFF30080E3
:1089C00000CA9A3B000000008D49FD1A41150400C1
:1089D0005D1304009430050050300500602405004C
:1089E0002DE9F04F8FB0DFF8D8800A900DF13701F4
:1089F0000DF136000EF030FE324F9DF836A09DF896
:108A000037B00CF04BFBD8F80040A4FB07542AA366
:108A1000D3E90023814621462846FDF771FB0A9BD6
:108A20000B90D8F804000693274B0593002622A349
:108A3000D3E90023A0FB0701CDE90766FDF760FB42
:108A40000B9B23F07F47214B20F07F40A7FB033196
:108A50000722CDE9036002FB0711E81A64EB01016C
:108A60004FF47A720023FDF74BFB0096CDE90170BD
:108A70004B465A46032150460CF0E4F930F002040C
:108A800016D1134A134800231FF0DEF868B19DF891
:108A900037209DF836000094234603210CF05EFA3F
:108AA0006FF073000FB0BDE8F08FD8F80C00F9E755
:108AB0006FF08B00F6E700BF8D49FD1A070000003C
:108AC0006C67002000CA9A3BD94F04008D49FD1AFB
:108AD000447B0B007C67002038B50F4D04460CF03A
:108AE000DDFAA9680CF0DCFA6968B0FBF4F4044420
:108AF0000A4807A3D3E90023A1FB0001FDF700FB0F
:108B000020F07F40844294BF0020012038BD00BF88
:108B10008D49FD1A070000006C67002000CA9A3BCF
:108B200001481FF0E1B900BF6002002007B528F03E
:108B30001FF84FF47A72A0FB020302FB0131C00B55
:108B4000074A40EA4140106000234FF400420548C4
:108B5000CDE900231FF060FF002003B05DF804FBA7
:108B6000983B0020D00D002008B5044B187800F089
:108B70009BF9BDE8084020F0C0B900BF9E6C002002
:108B8000044B1A78824202D01870FFF7EDBF002024
:108B9000704700BF9E6C002008B527F0E9FF4FF436
:108BA0007A72A0FB020302FB0131C00B044A40EAC7
:108BB00041401060BDE808400020FFF7E1BF00BF62
:108BC000983B002008B527F0D3FF4FF47A72A0FB42
:108BD000020302FB0131084AC30B126843EA414316
:108BE0009B1A47F23052934204DDBDE80840012051
:108BF000FFF7C6BF08BD00BF983B002030B5184C3A
:108C00008DB00022002303A920461EF0AFFE08B15C
:108C10000DB030BD059DDDE9030100F059F8B5FA4E
:108C200085F56D09FF238DF8183007908DF82050D9
:108C300027F09EFF4FF47A72A0FB020302FB013182
:108C4000C00B40EA4140C90B8DE8030006ABCDE9FB
:108C50000A010FCB00F034F920F04FF9D1E700BF43
:108C60007C0F00201FB583F00103CDE901120393AF
:108C70000022002301A904481EF022FE03481FF031
:108C800033F905B05DF804FB7C0F00209C3B00200D
:108C900010B51EF0EBFB044678B10A490A4827F0EC
:108CA000A1FDA36809491B6820469847A3689B68F3
:108CB00033B120469847002010BD6FF01500FBE748
:108CC0001846F9E7FD8B02009C3B0020658C0200F2
:108CD000222303FB0011024B53F82100704700BF11
:108CE0009C1505002DE9F041134B144EA3EB06082B
:108CF00007460D4606EBC106C8F3C708A84504DCC5
:108D00000024384628F0E1F813E032683B689A42C4
:108D10000AD1736838461B68984701280446EFD08B
:108D2000022804D00028ECD101350836E6E73D7171
:108D300000242046BDE8F081B03D0500803D0500DF
:108D4000F8B546680769054630681EF08FFB386045
:108D5000002844D07379317943F40072D0F810C000
:108D6000D0F808E013F0010F4FF00104DCF80030F8
:108D700004FA01F414BF2343A343CCF80030DEF817
:108D80000030984770BB03F023F9184803F05EF8F1
:108D9000044610BB1649174827F04AFD164802F052
:108DA000FFFF7B795BB901233B710022002311484F
:108DB0001FF002F9AB681B680BB128469847F18891
:108DC00059B140F2E7304FF47A72002300EBC13022
:108DD0000021FDF795F91FF0F3FB2046F8BD6FF079
:108DE0001504FAE76FF00404F7E700BF70020020F3
:108DF000FD8D0200481200203835050030B58BB0DB
:108E0000084C20461EF032FB0569074A23462821FC
:108E1000684603F01BFF0122291D684602F086FF09
:108E20000BB030BD423505004C35050008B54FF498
:108E3000F012002302481FF0F3F800EAE07008BDCA
:108E4000481200202DE9F3410C461646134901AAA9
:108E50001F4621F02BFAD8B1DDF80480B8F1000FDD
:108E600016D1012C17D10E4D2246291D3846B04788
:108E7000002806DB6C712C790A482CB120F053F8DD
:108E8000404602B0BDE8F08120F05FF82046F8E7E8
:108E90006FF00100F5E76FF01500F2E742350500CD
:108EA000AC3B0020B010050010B504460C2028F0A3
:108EB00013F8024A0260047210BD00BF401605009C
:108EC00084B070B504AC84E80F00202028F004F8CA
:108ED0000446084B44F8083B04AD06460FCD0FC4CA
:108EE00095E8030084E803003046BDE8704004B014
:108EF000704700BF441605000268034B9A420CBF3E
:108F000008300020704700BF4416050010B5044625
:108F10000C2027F0E1FF024A0260047210BD00BF7E
:108F20004C16050082B038B504A981E80C0005464E
:108F300011481EF09BFA0446A0B16B68012B0CD0BF
:108F4000022B05D0A3B9BDE8384002B020F023B809
:108F500020F028F800282046F5DCBDE8384002B0B3
:108F600020F012B86FF00400BDE8384002B070473E
:108F70006FF08500F8E700BF4235050082B010B5FC
:108F800002A981E80C0004460A481EF06FFA58B1A5
:108F90006368022B06D120F005F80028CCBF002022
:108FA00001206060002001E06FF00400BDE8104087
:108FB00002B0704742350500094A52F820300133AB
:108FC00042F82030074A0123117883400B43DBB27B
:108FD0001370054A50785370181A18BF0120704753
:108FE000B43B00209F6C00205D0D00200D4A52F81C
:108FF0002030002B12DD013B42F820300A4A2BB909
:1090000013780121814023EA01031370074B107884
:1090100059785870401A18BF012070476FF015003A
:10902000704700BFB43B00209F6C00205D0D002006
:109030000449054B09785A7808435870801A18BFBC
:10904000012070479F6C00205D0D0020044A054BF5
:1090500050781B785370181A18BF0120704700BF52
:109060005D0D00209F6C0020A0F1E003072B03D8CA
:109070002030C0B2FFF7A0BF064B002213F8011F3B
:1090800021B10132062AF9D100207047187000285A
:10909000F7D0F9E75F0D0020A0F1E002072A10B435
:1090A000034604D8203010BCC0B2FFF79FBF064A69
:1090B0000620002112F8014FA34208BF11700138A9
:1090C000F8D110BC704700BF5F0D00200248082295
:1090D000002122F0E5BB00BF5E0D002010B508495D
:1090E000002301EB4302B2F8014024B10133062B07
:1090F000F7D1002010BDA2F801000028F6D0F8E753
:10910000500D002030B50023074C194604EB4302F4
:109110000133B2F80150854204BF51709170062BA3
:10912000F4D1002030BD00BF500D002002480C22B9
:10913000002122F0B5BB00BF510D00200048704750
:109140005D0D002000487047500D002008B5FFF766
:10915000F5FF094A127822B1012A07D06FF0850085
:1091600008BDBDE80840092101F038B9BDE8084054
:10917000013000F0F5BC00BF660D002008B5FFF718
:10918000E1FF094A127822B1012A07D06FF0850069
:1091900008BDBDE808400D2101F020B9BDE8084038
:1091A000013000F003BD00BF660D002002490348F6
:1091B000012202F0BBBD00BFA06C002008360500F4
:1091C00010B502F005FF074802F040FE044630B932
:1091D0000548064927F02CFB054802F0E1FD204632
:1091E00010BD00BF8802002078120020AD9102005F
:1091F0001C36050038B500F0B1FAC8B101F0B8F876
:1092000002281BD10F4B1C780F4D2B78A34217D08F
:10921000FFF75CFFFFF78AFFFFF798FFFFF7AEFF4E
:1092200020462C7000F02EF8BDE838401FF065BED7
:1092300001F09EF8841E18BF0124E5E70124E3E74E
:1092400038BD00BFA06C0020660D002070B50C4634
:1092500015460A4900221E4621F028F850B1012C7B
:1092600009D1074922463046A847002802DDFFF70A
:10927000C1FF002070BD6FF01500FBE7123605003E
:10928000A06C002010B504460C2027F025FE024AF1
:109290000260047210BD00BFD416050002281FB57D
:1092A0002AD818B911B9002004B010BD144C0123FC
:1092B00022688340E9B113439A422360F3D08DF8CA
:1092C00000008DF8011027F053FC4FF47A72A0FBD8
:1092D000020302FB0131C00B40EA4140C90BCDE95A
:1092E000020104AB13E90F0000F0B6F81FF005FE11
:1092F000D9E722EA0303DFE76FF01500D4E700BFE8
:10930000D43B00202DE9F04F15464FF4D8721F468C
:109310004A430C2303FB0522394B134482460E4675
:1093200093E807008DB005AC84E80700DDE91689F5
:109330001EF09CF8834600285DD0CDE90865CDE994
:109340000A8905981EF092F883685B689C4653B1C1
:109350000CAB13E90300DDE908238DE80300204688
:109360006146884758BBDBF808301B78012B13D0C7
:10937000022B27D0002B40D1CDE90A890CAB0297F4
:1093800013E90300CDE908658DE803002B4632465A
:1093900020461FF01FFF12E0CDE90A8902970AAAB2
:1093A00092E80300CDE908658DE8030008ABBAF147
:1093B000FF0F0CCBECD02146504620F062F80DB0E8
:1093C000BDE8F08FCDE90A89CDE9086502970AAEBC
:1093D00096E803008DE8030008AD95E80C002146EF
:1093E000002020F04EF8029796E803008DE8030075
:1093F00095E80C00CCE70120E1E76FF08500DEE79F
:10940000DC1605002DE9F34DDDE90AAB104D804671
:109410000F4614461AB10F4B1B6845F8213002263F
:1094200055F82710F0B21FF0C5FE30B9013EF7D253
:109430006FF0850002B0BDE8F08DCDE900AB2346AA
:109440003A4631464046FFF75DFF0028F2DDEDE782
:10945000D83B0020D43B00207FB56C4684E80F0049
:10946000182027F039FD0546054B45F8083B064610
:1094700094E80F0085E80F00304604B070BD00BFCF
:10948000F01B050084B070B504AC84E80F00202008
:1094900027F022FD0446084B44F8083B04AD06467D
:1094A0000FCD0FC495E8030084E803003046BDE803
:1094B000704004B0704700BFF81B05000268034B02
:1094C0009A420CBF08300020704700BFF81B05000F
:1094D00013B56C4684E80300102027F0FDFC02461B
:1094E000054942F8081B034694E8030082E803009C
:1094F000184602B010BD00BFFC1B050007B5094BA4
:109500001A78094B8DF80020162102FB01330193D4
:1095100002AB13E90300FFF7DBFF03B05DF804EBD8
:109520001FF0EBBCA16C0020AA6C0020024903488C
:10953000012202F0FBBB00BFA16C0020D136050068
:1095400070B503788AB004460E4607AD032B20D8C9
:10955000DFE803F002191B1D1149284622F057F9D4
:1095600063780493A3780393E378029323790193B8
:10957000637900930B4AA37905951E21304620F0AC
:1095800086F80AB070BD0849E7E70849E5E70849E9
:10959000E3E7084A0A21284620F079F8E0E700BF0F
:1095A000E43605000D370500EB360500F236050000
:1095B000FC360500063705002DE9F0438BB00D465B
:1095C000164626496A460446984620F06FFEF8B1D2
:1095D0000098E8B10A2201A922F0A1F8019B1F78A6
:1095E00007BB162D1ED1C4B2042C1BD8DFF8709017
:1095F0006C432A4609EB04014046B047002813DDBE
:1096000004F10F0002A94844FFF79AFF00200BE085
:1096100014496A46204620F049FE78B1009B6BB998
:10962000012D04D06FF015000BB0BDE8F0830E499A
:109630002A464046B04700EAE070F5E70B496A4623
:10964000204620F033FE0028EED0009B002BDDD119
:10965000072DE7D106492A46EBE700BF3037050062
:10966000AA6C0020D5360500A16C002054370500F7
:10967000A36C002010B590B0044623F010FA6946A0
:10968000FFF75EFF08A9204606F0C2F99DF82130D9
:10969000012B13D10A481EF027FC204623F0FFF9C6
:1096A000084B09491B78162202FB03110F310722D0
:1096B00022F0DBF810B905481EF016FC10B010BD02
:1096C000E8020020A16C0020AA6C0020D802002033
:1096D00007B50A4B0A481B78162202FB03006946AD
:1096E000002307220F300093CDF8033022F0BDF89D
:1096F000B0FA80F0400903B05DF804FBA16C0020D3
:10970000AA6C00202DE9F04104468CB00D464FF0C4
:1097100016080F4F04A9284614FB08F6FFF710FFA0
:1097200006F10F0029460722384422F0AEF82246FF
:109730000849684603F0A2FA4246B919684602F0A1
:10974000F5FA05481EF0D0FB0CB0BDE8F08100BF73
:10975000AA6C002039370500D802002037B50E4B1F
:109760000E4C1B78162202FB03440F3400250722FF
:10977000694620460095CDF8035022F076F848B1AE
:109780002146284606F0F2F820B123F0B7F8012070
:1097900003B030BD0020FBE7A16C0020AA6C0020C4
:1097A000F0B58DB0FFF794FF88B9FFF7D7FF80F0D1
:1097B00001035B00DBB2224D2A7803EB0213112B6D
:1097C00007DC022B2FD0102B0CD0002407E0022343
:1097D000F1E7202B06D0122B4FF000040AD02046D0
:1097E0000DB0F0BD05F056F900232B70044600289B
:1097F000EBD0F4E705F04EF92C7004460028EED1CA
:10980000104F0FCF02AE0FC63B680F4933600422E2
:109810000094234602A805F00BF904460028DED187
:1098200002232B70D1E7074E0FCE07AC0FC433686D
:109830002360002304490093042207A8EBE700BF3C
:10984000A26C002080140500141C050030B591B0F6
:10985000054623F024F969460446FFF771FE08A97E
:10986000284606F0D5F89DF82130012B05D1FFF7E9
:109870002FFF214618B904F00BFA11B030BD034B8D
:109880001878FFF73FFFFFF78BFFF6E7A16C00208A
:1098900030B591B00D4608A9044606F0B9F89DF818
:1098A0002130012B0BD1204623F0F9F86946FFF750
:1098B00047FE104B00221A701DB1FFF771FF11B067
:1098C00030BD0221204623F098F8FFF769FF2046BB
:1098D00023F0E5F8084B09491B78162202FB031117
:1098E0000F31072221F0C1FF0028E8D104481EF003
:1098F000FBFAE4E7A26C0020A16C0020AA6C002017
:10990000D802002010B5002004F010FB0446C0B9B6
:1099100002F05EFB0C4802F099FA044688B90B4944
:109920000B4826F085FF0B4802F03AFA0A4802F08D
:1099300037FA0A4805F0F6FF094806F0CFFAFFF7B4
:109940002FFF204610BD00BFC00200202D95020051
:10995000A8120020493705004D370500A00200205D
:10996000F80200202DE9FF41124E134F30781625E2
:109970004FF00F0815FB0080002407226946384489
:109980000094CDF8034021F070FF68B1337815FBE7
:1099900003813944204604F07BF93078029402A90F
:1099A000CDF80B40FFF7AEFEFFF7FAFE002004B043
:1099B000BDE8F081A16C0020AA6C0020042808B545
:1099C00010D80A4B1A7882420AD018704FF4F0125D
:1099D000002307481EF024FBFFF7E2FEFFF78EFD91
:1099E000002001E06FF0210008BD00BFA16C002045
:1099F000A8120020054B187805230130B0FBF3F3C3
:109A000003EB8303C01AC0B2FFF7D8BFA16C0020DC
:109A1000054B187805230430B0FBF3F303EB830305
:109A2000C01AC0B2FFF7CABFA16C0020034B0448A4
:109A30001B78162202FB03000F307047A16C002038
:109A4000AA6C002010B5014604460722044821F004
:109A50001CFF21460348BDE81040072202F066B90A
:109A6000A36C0020503705001FB54C240294044C11
:109A70000194BDF81840009424F00DFB04B010BD13
:109A80008E37050007B5064B0093064906480523A7
:109A90004FF400721EF02EFA002003B05DF804FBB4
:109AA000601D0500F06D0020D8120020F0B5134EA7
:109AB000134F89B000220023694630461DF056FF3F
:109AC000054608B109B0F0BD1FF08BFC0446002824
:109AD000F8D01822294602A821F0E2FE08230DEB57
:109AE000030120460397CDF810D0ADF8143007F0ED
:109AF00003FF204622F002FFDCE700BF4C0F0020EE
:109B0000981C05002DE9F041134FDFF850808AB012
:109B100001AE00220023314638461DF027FF0546DE
:109B200010B10AB0BDE8F0811FF05BFC04460028CC
:109B3000F7D01822294604A821F0B2FE0C2304A96C
:109B40002046CDE90586ADF81C3007F0D5FE20464D
:109B500022F0D4FEDDE700BF1C0F0020FC1C050036
:109B600037B5054640F6CD42014600230C481DF0AE
:109B7000A7FE044678B110F10B0F09D10022002393
:109B8000694607481DF0F2FE2846FFF7E9FF044644
:109B9000204603B030BD0349034826F02CFEF7E70A
:109BA0004C0F0020F0030020D812002030B50546ED
:109BB00085B040F6CD42014600230D481DF080FEE1
:109BC000044678B110F10B0F09D10022002301A93E
:109BD00007481DF0CBFE2846FFF7E8FF0446204665
:109BE00005B030BD0349044826F005FEF7E700BF85
:109BF0001C0F0020E0030020D812002010B50446FE
:109C00000C2027F069F9024A0260047210BD00BFFF
:109C1000681D050001481EF067B900BF0004002060
:109C200037B50F4CA5682C21EB6820469847A0B9A2
:109C30002C212B696A462046984770B9094C009B35
:109C400022789A4209D0D8B2207000F06FFF20B974
:109C50002078FFF7D3FF1FF050F903B030BD00BFED
:109C6000C8100500196D002013B50B4826F08BFBBA
:109C700070B1FFF7D5FF044638B94FF4F012002356
:109C80000648CDE900231EF0C7FE204602B010BDF5
:109C90006FF01204F9E700BFC8100500080E00209D
:109CA00030B5064D0FCD87B001AC0FC42B68044909
:109CB000236001A805F048F907B030BD94140500F1
:109CC000CD9D020007B50023074900934FF40072B1
:109CD000052306481EF00EF9054805F023FE03B0E3
:109CE0005DF804EBFFF7DCBFF06F00207813002075
:109CF0001004002084B010B588B00AAC84E80F00CE
:109D00001148214640F6CD4200231DF0D9FD0446FE
:109D1000A8B110F10B0F0CD10022002303A90A48AF
:109D20001DF024FE0E9B00930AAB0FCBFFF7E2FF62
:109D30000446204608B0BDE8104004B0704703490F
:109D4000034826F058FDF4E7AC0F00204004002043
:109D50007813002070B503788AB004460E4607AD2C
:109D6000032B20D8DFE803F002191B1D11492846F8
:109D700021F04DFD63780493A3780393E378029375
:109D800023790193637900930B4AA37905951E21EA
:109D900030461FF07CFC0AB070BD0849E7E708496F
:109DA000E5E70849E3E7084A0A2128461FF06FFC67
:109DB000E0E700BFE43605000D370500EB3605008F
:109DC000F2360500FC3605000637050070B588B090
:109DD0001646694605461C46FFF7BCFF012E04D80F
:109DE00003492A46204622F01AFA08B070BD00BF87
:109DF00005A2020030B50C4D89B002AC0022002350
:109E0000214628461DF0B2FD08B109B030BD08ABAF
:109E100013E903008DE8030094E80F00FFF750F802
:109E20001FF06BF8EAE700BFEC0E002070B5104E93
:109E3000104C8AB00022002305A930461DF096FD83
:109E400008B10AB070BD9DF814307C225343E51868
:109E5000E35C022BEED1CDE9010001230093B5F8BC
:109E60005810686813230DF1150224F0B0FBE1E7E8
:109E7000AC0F0020683C0020034B5B68834214BF9A
:109E80006FF0150000207047683C002008B5FFF710
:109E9000F3FF031EA3BF03487C2202FB0300002044
:109EA00008BD00BF683C002010B5022188B0044600
:109EB00022F0A3FD48B92046FFF7E8FF28B1038D43
:109EC0002BB16946204605F0A3FD08B010BD094A34
:109ED0008260094AC260012202824FF6FF72C2828A
:109EE000037600F10801406807F070FE0028E8D012
:109EF000EBE700BF18380500FD9E02002DE9F04198
:109F0000134686B007460E4639B91822184621F086
:109F1000C7FC304606B0BDE8F081FFF7B7FF044646
:109F20000028F7D0134BD0F808C001AA03F110089D
:109F3000964618685968154603C5083343452A46AE
:109F4000F7D11B782B707146604621F08CFD0546D9
:109F500008B10120DEE7084BE360338AA0600133DB
:109F600023820323237604F10801384607F02EFEEE
:109F70002846CFE7A814050041A002002DE9F047CC
:109F800086B007461446FFF781FF002851D024B958
:109F90000C81204606B0BDE8F087631E00F159022F
:109FA0000F3413F8011F12F8015F6940117419781A
:109FB0001170A342F5D1DFF88090DFF880A000F1A6
:109FC0006A0400264FF0010800252378EB40DB07E8
:109FD00027D514F8101C08FA05F31942384614BFA7
:109FE00001210021FFF748FFAA198DF80000019216
:109FF0008DF8081026F0BCFD4FF47A72A0FB020326
:10A0000002FB0131C00B40EA4140C90BCDE904011C
:10A0100000220023694648461DF052FC50461DF0C0
:10A0200063FF0135082DD0D10836802E04F10104DC
:10A03000CAD10120AEE700BFEC0E002030040020A2
:10A040002DE9F04106468AB00D46002962D0C96864
:10A05000002961D0FFF71AFF044600283AD02F4BA1
:10A06000D1F800C06A4603F110089646186859688E
:10A07000174603C7083343453A46F7D11B783B7070
:10A080007146604621F0EFFC38BB2B8AA06002339A
:10A0900023820323237604F140032363E38AA38509
:10A0A000284624F00FF81E4B236201232085A38647
:10A0B0003046FFF7EBFE20B100F12001304607F0FB
:10A0C00091FFB4F858301BB1238D003B18BF01231A
:10A0D00083F001000AB0BDE8F081EB681F68114B06
:10A0E00005AA03F1100E944618685968164603C66F
:10A0F000083373453246F7D11B78337061463846D2
:10A1000021F0B1FC0028DCD1284623F0DBFFA4F8C5
:10A110005800D6E70846DDE70846DBE7B914050036
:10A120007D9F0200CA1405002DE9F047044686B061
:10A1300000284AD1264D2B78002B46D0686810B1F4
:10A1400022F0DCFB6C600024224FDFF88C90DFF8FB
:10A150008CA02C70A04600263B78F340DB071CD572
:10A1600033198DF8008001938DF8088026F000FDEA
:10A170004FF47A72A0FB020302FB0131C00B40EAEC
:10A180004140C90BCDE9040100220023694648463D
:10A190001DF096FB50461DF0A7FE0136082EDBD1C0
:10A1A0000834802C07F10107D5D100220C49134651
:10A1B00001F8013F0132102A0B74F9D12B85A5F863
:10A1C0005830002006B0BDE8F0876FF01500F9E7C1
:10A1D000683C0020C23C0020EC0E0020300400202F
:10A1E000C13C002038B5064D2C7834B92046FFF725
:10A1F0009BFF01232B70204638BD6FF00B00FBE75F
:10A20000683C00202DE9F0410378063B012BA4B007
:10A2100005460E4603D9012024B0BDE8F0814478FC
:10A2200014F00F04F7D16B789C42F4DA69681022BD
:10A23000214401A821F045FC70B3354B06AA03F177
:10A2400010079646186859689446ACE8030008332E
:10A25000BB426246F6D11B788CF80030714601A8EB
:10A2600021F001FCD0B1252210A901A802F0DEFFE7
:10A270000BAA274B9646186859689446ACE8030029
:10A280000833BB426246F6D11B788CF80030252299
:10A290001AA9704602F0CAFF1034C4E73046FFF72F
:10A2A000D1FB04F0CDFE07460028F5D1FFF79AFF59
:10A2B0003146C5B2384605F059FBDFF858C0164C98
:10A2C0007C2255430CEB05081AAFC8F8040050B1C6
:10A2D000FFF7EAFDA06C1A903946D8F8040022F086
:10A2E000E0FB002098E7E06C216D10AB543403C311
:10A2F00094E80F0087E80F002B1D634410AA39462D
:10A30000304605F0B3FB0028EBD0FFF7C9FCE8E7C7
:10A31000A8140500683C00209414050008B5FFF758
:10A32000ABFD002805DB7C235843024B02221A5464
:10A33000002008BD683C0020024B187002481DF048
:10A34000D3BD00BF760D00205004002008B504489E
:10A3500001F006FA002818BF6FF0150008BD00BF15
:10A3600039A30200014B1878704700BF760D00201A
:10A37000084B1B78033B082B08D8DFE803F00905DE
:10A3800009070707070705000020704701207047ED
:10A3900002207047760D002010B50948094C1DF0C9
:10A3A00065F8206048B1084B08494C2219F0AEF915
:10A3B000206825F092FA002010BD6FF01500FBE731
:10A3C00029380500E43C0020701D05002F380500E9
:10A3D00001481DF013BC00BFF40F002038B504463F
:10A3E0000D46FFF7BFFF0B280BD8DFE800F01E1E5D
:10A3F0000A0A1E060A0A0A0A0A1EBDE8384001F0C7
:10A4000079B94FF47672002309481DF01DFC094804
:10A410002146006800232A4625F069FA044610B157
:10A4200003481DF0EBFB204638BD6FF01204FAE73D
:10A43000F40F0020E43C00200148FEF729BC00BFD7
:10A440007B38050010B5094C0A44914200D110BD7B
:10A4500011F8013B584003090001E35CC0B24340DE
:10A4600018091B01205CDBB25840EEE7813805007B
:10A470000B6801330B60014B1B6818476004002018
:10A4800007B50B46002102460191034801A900F0DF
:10A49000F7F803B05DF804FB71A4020030B585B095
:10A4A000CDE901010446002501A90548039500F006
:10A4B000E7F8DDE902309842B8BF255405B030BD59
:10A4C0004F9604002DE9F84FB0F8189019F00808DD
:10A4D000044693460DD001290CBF49F0100949F0FC
:10A4E0002009A0F818908BF31188BFF36F8FBDE897
:10A4F000F88F09F0070902290DD120461FF0EFF867
:10A500000028F0D00138238B042869D8DFE800F058
:10A510000368505A61006769218B002F15DA25689E
:10A52000C4E9008821F0070141F0010121830026E0
:10A53000218B01F0070ACA4502D0A368002B52D133
:10A540000DB9002E69D000234EE001F007035A1F19
:10A55000012A1CD821F00701062B256889B2C4E91D
:10A5600000880AD13DB1638B2A46126801339BB241
:10A57000002AFAD1638341F00201218320461FF0B3
:10A58000AEF806460028D3D041F02001CEE7042BD8
:10A590000BD121F0070189B2218320461FF09FF8DB
:10A5A000054618B141F02001218300252E46BFE762
:10A5B000226923F00703166843F00603238300256E
:10A5C0002F46B5E7226923F00703566843F00403DA
:10A5D000F4E7226923F00703966843F00503EDE7EB
:10A5E00000252E46ECE7012341F0080121838BF37F
:10A5F0001188BFF36F8FFBB985BB16B11F49204689
:10A60000B0474FF02003EFF3118B83F31288BFF3B1
:10A610006F8F238B23F008032383238BDA0625D542
:10A6200023F0100323830121B4F8189009F00709DF
:10A6300000297FF460AF56E7A1680029DCD0D1F88B
:10A640000090D1F804B03B4652462046D847B9F1B5
:10A65000000FD1D04946D9F80090F2E729463B4691
:10A66000524620462D681FF056F8C5E713F020012A
:10A670001EBF23F0200323830221D5E74397040064
:10A680002DE9F04F8DB01D46531E01908A4602936E
:10A690004FF00009029B5878252803F1010420D1CE
:10A6A00000211E464FF0FF3702360A4603913C4612
:10A6B0004FF00A0C33780296392B06F1010659D86F
:10A6C0001F2B18D8002B00F0E881019B5146252054
:10A6D0009847029B51461878019B984709F1020957
:10A6E000D8E7002800F0D981019B5146984709F12D
:10A6F00001090294CEE7A3F120001928E5D80FF252
:10A70000080E5EF820F000BF71A70200CBA6020081
:10A71000CBA6020071A70200CBA60200F5A702009B
:10A72000CBA60200CBA60200CBA60200CBA602005D
:10A7300039A8020071A70200CBA602004BA80200B4
:10A7400003A80200CBA602000FA802002BA802005B
:10A750002BA802002BA802002BA802002BA80200A5
:10A760002BA802002BA802002BA802002BA8020095
:10A7700019469FE7582B00F00D81A3F163005FFAA3
:10A7800080FEBEF1170FA0D817289ED80FF2040E36
:10A790005EF820F0F3A9020071A80200CBA6020027
:10A7A000CBA60200CBA6020051A8020071A80200AD
:10A7B000CBA60200CBA6020051A80200CBA6020045
:10A7C000CBA60200CBA6020041A90200CBA6020044
:10A7D000CBA60200D5A90200CBA6020071A80200F8
:10A7E000CBA60200CBA6020041A90200CBA6020024
:10A7F00051A80200019B51462520984709F1010903
:10A8000048E7039B03F0FE030393002752E7002C65
:10A810000BDA002F0BDA0398002800F0368124EAC7
:10A82000E4740CFB0434303C44E7002FF7DB0CFBF2
:10A830000733A3F130073DE7002F55F8043B80F2C2
:10A840002681002B80F225815C420223039331E7AD
:10A85000682B03D1682A06D148222BE76C2B02D142
:10A860006C2A00F01881002A7FF42FAF1A4621E7E6
:10A870007A2A06D1752B55F8046B15D14FF0000BD1
:10A880000CE06C2AF6D04C2AF4D1073525F00702EB
:10A89000752BD2E9006B02F1080507D1202946D1BA
:10A8A000DFF80082013C0AE04FEAE67BBBF1000FD3
:10A8B000F4DA7642DFF8F0816BEB4B0B013C0DF1E3
:10A8C0002D03059300230493304659460A220023A2
:10A8D000FBF716FCDDF810C00CF1FF330493059B69
:10A8E000303203F8012D324605930A2A5B4673F194
:10A8F000000306468B46E7D2CCF101030CF130028F
:10A900000DEB0206002FA6F1040604DA039A12F0FA
:10A91000010F18BF2746039AA7EB030BBBF1000FEB
:10A92000D4BFE41AE41B92077AD4274671E02B299E
:10A930000ABFDFF87881DFF8788104F1FF34BEE7E1
:10A94000702B27D155F8042B0020002A58D0DFF8AF
:10A950006481023C03F06003A3F1390B0DF12D0E6D
:10A96000002602F00F03092B88BF5B4430330EF83A
:10A97000013D102A4FEA121343EA00734FEA101107
:10A9800070F1000006F1FF3C20D2C6F1010306F190
:10A990003002B5E76C2A03D155F8042B002008E0FB
:10A9A0004C2AF9D1073525F007000546406855F8CF
:10A9B000082B232907D1404E3E4913F0200F0CBF2E
:10A9C000B0468846C5E7DFF8E880C3E766461A4622
:10A9D0000846C6E755F8046B304620F022FF002FEA
:10A9E000034602DBB842A8BF3B46DFF8C48000271D
:10A9F00091E755F8043B8DF8183006AE0123F4E7D3
:10AA00002E4E0523F1E703935146019B20209847E2
:10AA1000039B013FF7D524EAE472013C9144A41A58
:10AA2000A9EB080704E003935146019B9847039B59
:10AA300007EB080918F8010B0028F4D15F46013F25
:10AA40000FD52BEAEB7B1F46013F11D5002BA8BF8A
:10AA50009B442646013E13D5002CA8BFA344D944ED
:10AA600018E603935146019B30209847039BE6E785
:10AA7000039316F8010B019B51469847039BE3E7AC
:10AA8000019B514620209847E4E70123DEE61F465C
:10AA900010E61C460EE64C220CE648460DB0BDE81A
:10AAA000F08F00BF933805009138050095380500F8
:10AAB000CB380500973805009A3805009D38050009
:10AAC00008B54FF02002EFF3118382F31288BFF331
:10AAD0006F8F02F003F903481EF0CCFD01F0BEFDBC
:10AAE000FCE700BFA33805001FB507240294044CFF
:10AAF0000194BDF81840009423F0CDFA04B010BDC5
:10AB0000770D002010B5084C86B024788DF81740DA
:10AB1000012402940DF117040194BDF82040009423
:10AB200023F0B9FA06B010BD7E0D002000B589B043
:10AB300064288DF8070019D80E4B182218700021D0
:10AB400002A820F0ADFE0C4B03930DF10703049314
:10AB500002A901230020ADF8143006F0CDFE10F15B
:10AB6000800F08BF002009B05DF804FB6FF01500EE
:10AB7000F9E700BF7E0D0020241E05002DE9F743F4
:10AB80000F4606460821C06ADFF850901FF00CF906
:10AB90003C68241A80463C6004EA0905AC4203D8AC
:10ABA000002003B0BDE8F08308236A462146304602
:10ABB0001FF06FF80028F4D1694630461FF0FEF808
:10ABC00040B1BDF80230BDF804203C6005EA09053B
:10ABD00013441D44A4EB0804E0E700BF0000FFFF9E
:10ABE0002DE9F047044688B00D4600F114073846B9
:10ABF00025F0A3FC28461CF039FCA062002800F0D8
:10AC000020818368DB689847E06228B96FF01505FA
:10AC1000284608B0BDE8F087A06A8368DB689847DB
:10AC20000368013B1F2BF1D8A06A216805AA25F013
:10AC30004AF80028EAD1A589002DE7D0069BB5FB8C
:10AC4000F3F203FB1255002DE0D1E389012BDDD98E
:10AC5000E36A009593F804904FF0FF334FF0FF3212
:10AC600038461CF0DDFEE06A08211FF09DF8A8467A
:10AC70000646E3891FFA85FA534546D8E3894345DA
:10AC800000F0D48053450BD1009908234A46891B14
:10AC900020461FF036F818B9E08969461FF079F8A8
:10ACA00069462046FFF76AFF0546002840F0C0804D
:10ACB000009B63604FEA13484FEA0848C4F80880D5
:10ACC000D4E9011399420ED3082301AA20461EF0AD
:10ACD000E0FFC0B901AB13F8012B914540F0C180F2
:10ACE00001300828F7D16368E0891B0C1B04694612
:10ACF00000931FF04EF8A38900994A4620461FF0A2
:10AD000000F8002825DA054692E0A1892B04891B6A
:10AD100013FA81F14A460823204600911EF0F1FF04
:10AD200078B1E08969461FF034F808F1010800990C
:10AD300008234A4620461FFA88F81EF0E2FF002842
:10AD40009CD0013595E7002A00F09F806FF01C052C
:10AD50006EE0636845D006EB03084FF6FF79A389E0
:10AD6000CDF800801FFA88F29B1B9A4215D36168C8
:10AD700020461EF0EBFF0028C5D16368454AA18933
:10AD800013400B44A3EB460363601340A3602046CB
:10AD90001FF009F900283FD0B5E7082303AA414670
:10ADA00020461EF076FF0028ADD103A920461FF0F3
:10ADB00005F838B1BDF80C304B4503D1BDF8103063
:10ADC000002B41D0B044CAE75B1A4A4620461EF029
:10ADD00098FF002897DB08D0E26AA3681268134442
:10ADE000A360D4E901318B42EED86168A38901EBFD
:10ADF00046029A42CED1DFF89C80A36801EA08029D
:10AE00009342C7D020461EF0A1FF00287FF47BAFFD
:10AE1000636803EA0803A360A389A288A3EB46033F
:10AE20009A4205D120461FF0A9F86CE76FF02C0577
:10AE300038461CF06DFE002D7FF4EAAE012323742A
:10AE4000E6E66FF00505E3E66368E0891B0C1B048A
:10AE5000694600931EF09DFF009920461EF076FF84
:10AE600098E701A920461EF0A9FFD4F804A060B11C
:10AE7000BDF80820BDF80610E06A11441EF094FFEA
:10AE800040445045A0603FF45EAFAAEB0603636008
:10AE900016E700BF0000FFFF2DE9F04F1E46037CC0
:10AEA00089B0044689469046002B00F0B280C26A01
:10AEB000082110461EF078FF3146824610461EF0EB
:10AEC00073FFA389A3EB8A039E42074600F2A48086
:10AED0001EB1B8F1000F00F09F806368039304AACD
:10AEE00003A92046DDF80CB01EF0A0FF054600289F
:10AEF0005AD1BDF810304B4505D06268039B9A4289
:10AF0000EDD1DEB950E004A920461EF057FF00281D
:10AF1000F3D0BDF81200BDF8143076B19E420DD1C9
:10AF20004FEA1B41090401443346424620461EF0C5
:10AF3000BEFE002802DC054636E0ABB3002F37D159
:10AF400004F1140A4FF0FF324FF0FF3350461CF06B
:10AF500067FDDFF8CCB0E3899D4257D0D4E90123E7
:10AF6000F9188A4227D3ADF81A3006A8FF238DF8C6
:10AF70001E30ADF81890ADF81C601EF001FF32468F
:10AF8000414620461EF0D6FF034638B906A92046A2
:10AF90001EF0E3FF002814BF0346334601935046DA
:10AFA0001CF0B6FD019B1D46284609B0BDE8F08F98
:10AFB0005744BFB2C4E70821E06A1EF0F5FE4FF621
:10AFC000FF73ADF818300023ADF81C301318ADF83E
:10AFD0001A30A38902EA0B021A44101A606006A80C
:10AFE0001EF0CEFE06A920461EF0B7FFE089211D07
:10AFF0001EF0CFFE636803EA0B03A36020461EF039
:10B00000D2FF03460028C9D10135A4E76FF01B0326
:10B01000C4E76FF00C05C7E76FF01505C4E700BF84
:10B020000000FFFF0C4BF0B45F6A0C4E0C4BB342B8
:10B0300003D36FF08500F0BC70475D68BD4209D353
:10B040001C693CB195F802C00579AC4502D1234694
:10B05000F0BC18472433EAE7E83C00204412002003
:10B06000201200202DE9F047134CDFF85080DFF864
:10B07000509005460E461746444503D36FF08500B1
:10B08000BDE8F0876268D9F824309A4212D3A369E8
:10B0900083B190782979884205D13A4631462846CD
:10B0A000BDE8F04718475279012A03D13A463146A4
:10B0B000284698472434DFE720120020441200205D
:10B0C000E83C00202DE9F0410B4CDFF830800546CC
:10B0D0000E461746444502D36FF0850009E06369C8
:10B0E0000BB92434F6E73A463146284698470028FB
:10B0F000F7D1BDE8F08100BF2012002044120020EB
:10B1000007B583788DF800300379427943EA02234A
:10B11000ADF80230C378684603F003038DF80430BD
:10B1200018F0B2FE10F1780F04D018B1002003B06F
:10B130005DF804FB9DF8000018F02CFF10F1780F6B
:10B1400001D00028F2D1024B012083F8B900EEE7CC
:10B15000E83C002002480822002120F0A1BB00BFEB
:10B16000A33D002070B50B4B0B4CA34201D3002034
:10B1700070BD196A1E7F00220439D5B2AE4201D8D3
:10B180002433F2E7013211F832508542F5D1012023
:10B19000EEE700BF2012002044120020094808B545
:10B1A0000378C3F341130A3350F823303BB100F165
:10B1B000080200F110019847C043C00F08BD1846AF
:10B1C000FCE700BFE83C002004282DE9F047DFF849
:10B1D000888004460E460ED1FFF7BCFFDFF87C9056
:10B1E00099F8B9305BB100F00DFD042C01D0012CB1
:10B1F00005D11B4D16E00528F0D00128EED0184DE2
:10B2000045451ED3154B1B6A1BB331462046BDE88E
:10B21000F0471847D5F820A000272A7FFBB29A42B2
:10B2200003D824354545F5D307E00AEBC3030137BE
:10B23000187918F0D9FE0028EFDA002389F8B93020
:10B24000DDE7EB681BB13246214628469847243596
:10B25000D6E7BDE8F08700BF44120020E83C00209C
:10B260002012002073B5C4B263060D468DF8074066
:10B2700007D02046FFF776FF88B10F4B93F8BA004E
:10B2800068B10D4E204665B118F020FEF3690BB988
:10B29000012004E008200DF107019847284602B07C
:10B2A00070BD18F03BFEF369002BF1D00DF10701E2
:10B2B00009209847ECE700BFE83C00202DE9F04763
:10B2C000A44EB36905460C46174663B9287800F0CA
:10B2D0001F00012800F0A680022800F0108138B17C
:10B2E0006FF0150095E098470028EFD1002090E01E
:10B2F00095F9002039686B78002A2EDA062B0FD0DA
:10B30000082B24D0002BEBD101220A704B7096F849
:10B31000C320520042F001020A7002222260E5E7D7
:10B320006B88190A0A1F012ADAD90729D8D8DAB294
:10B33000736A1D78002DD3D05E788E4203D182428D
:10B3400000F0178101302B44F3E71B7816E196F8E3
:10B35000BA300B70012323605BE0013B082BBFD8A0
:10B3600001A252F823F000BF05B40200E1B20200CE
:10B3700017B40200E1B202008DB30200E1B2020094
:10B38000E1B20200E1B2020099B30200A87818F01D
:10B3900069FD0028AAD0A3E76C88776A6CBBFFF729
:10B3A000D9FE6B8886F8BA30F369002B9ED06A49C3
:10B3B000032098479AE77B78042B11D0052B12D0F5
:10B3C000022B05D197F805806A88424508BF012005
:10B3D0003B781F443C78002CEDD1002880D0DEE77C
:10B3E00097F80390F4E76B884345F1D1B9F1000F6A
:10B3F000EED13846FFF784FEEAE74FF0FF08002061
:10B40000C146E7E76B88012B7FF46AAF002086F81E
:10B41000C300BDE8F0876B88012B7FF461AF86F82D
:10B42000C33063E796F8BA303A68002B3FF458AF60
:10B43000776AB5F804C095F804E03B461878002810
:10B440003FF44EAF5978022904D193F80480F045B7
:10B4500000F296800344F1E7107050702160D8E745
:10B460000F4499E00B287FF43BAF00244FF0FF0A14
:10B47000D046A14606E07B78042B0FD0052B22D0C6
:10B480003B781F443B78002BF5D1F36913B1494653
:10B4900007209847002C7FF429AF21E797F802A0F6
:10B4A000AA8897F8038092455346E9D16988884570
:10B4B0001FFA88F2E4D1072B1ED83344B94683F82B
:10B4C000BB200124DCE7AB885345D9D1AB78434599
:10B4D0000DD0BC78204600F077FB204618F084FDA4
:10B4E00010F1780FEDD0B0FA80F46409C8E738465F
:10B4F000FFF706FE0446C3E7B9460024C0E795F906
:10B5000000206B78002A19DA002B7FF4E9AE2D7940
:10B510003F686B060AD02846FFF724FE00283FF458
:10B52000DFAE96F8BA30002B3FF4DAAE3946284643
:10B5300018F014FD0020787002230CE7012B0DD0C9
:10B54000032B7FF4CDAE6B88002B7FF4C9AE0121B5
:10B5500008E000BFE83C0020A23D002069880029E7
:10B560007FF4BEAEA888FFF77DFE00287FF4BEAE54
:10B57000B6E602293B607FF4E8AE5B882360B5E65F
:10B5800095F900306878002BBFF66CAF00283FF4C7
:10B5900063AF0A287FF4A4AE397800293FF4A0AE47
:10B5A0007B78042B7FF45CAFBB789C457FF458AF6D
:10B5B000072B96BF9B19002393F8BB301370012310
:10B5C000DCE700BF13B5134C237DCBB9E268A1685B
:10B5D000019201AB80201EF0FEFD019AA368134486
:10B5E000A360E3689B1AE36043B93AB12369E28838
:10B5F0009A4203DD9B0601D10123237502B010BDE1
:10B6000000231A4619468020237502B0BDE8104079
:10B6100018F010BDE83C002030B585B0002302468C
:10B620000D460193002858D1002935D108220B4638
:10B630000DEB020124F09AF9002804DA802018F0BA
:10B6400045FC05B030BD2A4C029A2260039A626024
:10B6500004F13802A2609DF90820BDF80E3025756E
:10B66000002AC4E903550ADB802B04D9802018F096
:10B670002DFC0020E3E713B1C4E90333E1E7FFF752
:10B680008DFD0028DAD0E28823699A42D4BFE260B7
:10B69000E360FFF797FFD4E7154CD4E90215002DBE
:10B6A00001AB04DC24F062F90028CADAC6E72A46B6
:10B6B00024F05CF90028D9DB019AA3681344A36045
:10B6C000E3689B1AE360002BBBD104F13803A3604D
:10B6D000FFF764FD0028DCD1B0E78028B1D1044B2E
:10B6E000DA68002AD5D11B7D002BD2D1A9E700BF93
:10B6F000E83C0020044B93F8C3300BB124F045B96B
:10B700006FF00C00704700BFE83C0020054B064A74
:10B710009A62064ADA62064A1A63064A58629A61CF
:10B7200000207047E83C0020BDB2020025B00200B6
:10B73000C5B0020065B00200084B10B593F8B840E0
:10B7400034B900F0CBF830B1FFF7E0FF204610BD70
:10B750006FF07700FBE74FF0FF30F8E7E83C0020A0
:10B760002DE9F3410446354D35484FF0FF324FF097
:10B77000FF331CF055F995F8B860002E5BD13148C5
:10B780002C62E86118F06CFD18F02EFB041E36DB0D
:10B7900000F060FA041E32DB40236846ADF8023048
:10B7A0008DF804608DF8006018F06EFB041E26DB37
:10B7B000802768468DF8007018F066FB041E1EDBBB
:10B7C0002149304618F038FD041E18DB1E49384662
:10B7D00018F032FD041E12DB1C4CDFF87480444567
:10B7E00014D3002018F0D6FB041E08DB802018F0CC
:10B7F000D1FB041E03DB012385F8B8300024104878
:10B800001CF086F9204602B0BDE8F081276A0026C8
:10B81000227FF3B29A4201D82434E0E707EBC30257
:10B8200057F83310107918F007FD01360028EFD0D3
:10B830004FF0FF34E3E76FF07704E0E7E83C0020E7
:10B84000D80E0020C9B1020019B602002012002053
:10B850004412002030B51F4B8BB005AA03F1100530
:10B8600018685968144603C40833AB422246F7D11E
:10B870001B7823701022002101A820F011F8122259
:10B880000021154820F00CF8102101A824F082F9BD
:10B8900000281BDD0828B8BF0820093801AB0E4975
:10B8A0001A18002012F8013F0AAC04EB131403F03D
:10B8B0000F0328336B44013014F8144C13F8143C74
:10B8C0000C7008284B7001F10201EBD102480BB05B
:10B8D00030BD00BFE73805001A6D00202DE9F04F9C
:10B8E000654C85B000264FF0011BB1463546B24687
:10B8F00023782BB9614B02349C42F3D15E481DE0A2
:10B900006378052B05D8DFE803F075040375071F7E
:10B91000A24623781C44EBE7E378002BF9D1A37807
:10B920007BB109F101095FFA89F9F2E76A6894428B
:10B9300000F09A8024359D42F8D3002005B0BDE880
:10B94000F08F4F4D4F4BF6E7002DF6D0002301212D
:10B950002A7F9342F1D22A6AA77802EBC3021079B8
:10B96000874201D00133F3E70127E07894F805C05E
:10B9700000F003008DF80C00207940EA0C20ADF8AF
:10B980000A0094F9020000285FFA87F827DA07F125
:10B99000100001FA00F010EA0B0F27D148F08000E8
:10B9A0008DF8080002A8CDE9003223F0C7FFDDE9D9
:10B9B00000320121D0B99DF80830A37013F0800F38
:10B9C00018BF08F11008137118BF5FFA88F80B460A
:10B9D0000CBFBB4001FA08F34BEA030B99E701FAED
:10B9E00007F010EA0B0F01D14046D9E70137102FBD
:10B9F000BBD1B7E7032E1DD1FFF72CFF074668B177
:10BA00001FF00FFF804648B11F481FF00AFF804516
:10BA100004D142463946A01C1FF037FF23786FF04F
:10BA20000201E218091B04EB5303D14213D501367E
:10BA3000F6B26EE7002EF1D1BAF1000F3FF47DAF00
:10BA4000A4EB0A038AF80230C3F307238AF8033011
:10BA50008AF80490EBE74FF0000002F8010C13F8AD
:10BA6000010902F8020DE0E7AB68002B3FF459AF83
:10BA700049462046984754E78C1100201E120020AA
:10BA80002012002044120020E738050010B5094BB1
:10BA900000211A461C78844205D15C681CB14823F9
:10BAA00003FB012010BD0131042903F14803F1D14A
:10BAB0000020F7E7AC3D00202DE9F34150F8303C81
:10BAC00010F8346C1033044610D1036950F8282C58
:10BAD00099073CD502BB13F0040304D11A4619465A
