:020000022000DC
:10600000B059002075A40200894C040049A4020084
:1060100049A4020049A4020049A4020000000000B3
:10602000000000000000000000000000BDA1020010
:1060300049A402000000000075A1020049A402006A
:1060400039A20200B5A1030039A2020039A2020060
:1060500039A2020039A2020039A2020039A20200CC
:1060600039A2020039A2020039A2020039A20200BC
:1060700039A2020039A2020039A2020039A20200AC
:1060800039A2020039A2020039A2020039A202009C
:1060900039A2020039A2020039A2020039A202008C
:1060A00039A2020039A2020039A2020039A202007C
:1060B00039A2020039A2020039A2020039A202006C
:1060C00039A2020039A2020039A2020039A202005C
:1060D00039A2020039A2020039A2020039A202004C
:1060E00039A2020039A2020039A2020039A202003C
:1060F00039A2020039A2020039A2020039A202002C
:1061000053B94AB9002908BF00281CBF4FF0FF311E
:106110004FF0FF3000F00CB8ADF1080C6DE904CE83
:106120001CF06AFADDF804E0DDE9022304B07047F0
:10613000704700BF0000000073B53F4DD5F85431E3
:10614000996811F0010120D101AA40F6034004F042
:106150006FFF044600286BD1019883681B7893B9C0
:10616000BFF35B8F2B4653F8CC2FBFF35B8F02F04E
:106170000502BFF35B8F53E8001F43E80024002CA7
:10618000F9D1BFF35B8F16F0D9FF01AA002141F2CC
:10619000030004F04DFF0446002849D1019E274822
:1061A000B168082201311EF02CFE304616F0C6FF01
:1061B000214601AA41F2010004F03AFF04460028FA
:1061C00036D1019883685A7885F86820D9789A780A
:1061D00042EA0122A5F86A201A7985F86920197A1D
:1061E000DA7942EA0122A5F86C205A799B7942EAD1
:1061F0000323A5F86E3016F0A1FF214601AA41F253
:10620000020004F015FF044690B9019E0C48B168E5
:10621000402201311EF0F5FD09481EF0A6FE304671
:1062200016F08CFF95F874305A060BD46FF01204F8
:10623000204602B070BD00BF0000002070000020AA
:1062400078000020214601AA42F2030004F0F0FE8B
:1062500004460028ECD1019EB948B16808220131FA
:106260001EF0CFFD304616F069FF214601AA42F22A
:10627000020004F0DDFE04460028D9D1019CA36889
:10628000B3F80120A5F8FC2091B221B1DA78AD482D
:10629000114622F025FC204616F050FF95F8746058
:1062A00016F0200600F0218195F894301B0712D5D6
:1062B00001AA002142F21C0004F0BAFE04460028A4
:1062C000B6D101988368D3F80120D3F80530C5E929
:1062D000362316F033FF95F8D0309E0623D50DF106
:1062E000020168461FF09FF804460028A0D104214F
:1062F00042F2240004F040FE0646002800F0FC8034
:106300000421083021F0C7FCBDF800300380BDF83F
:10631000023043802246314642F2240004F088FED7
:106320000446002884D195F8D0305C0610D501AA27
:10633000002142F22A0004F07BFE044600287FF48C
:1063400077AF019883685B7885F8183116F0F6FE10
:10635000082142F2010004F00FFE0446002800F07C
:10636000CB800821084421F096FC95F8D01011F05C
:10637000400F024640F2022308BF032388074CBFA8
:1063800043F02C0043F00C008B0695F8D13048BF49
:1063900040F0400013F0090F95F89A3018BF40F410
:1063A000006003F00603CE0748BF40F01000062B44
:1063B00008BF40F4C07000211EF018FF21460022E3
:1063C00042F2010004F034FE044600287FF430AFAE
:1063D00095F87430B5F8FC10980600F1A280D9B990
:1063E00001AA41F2050004F023FE044600287FF4D0
:1063F0001FAFB5F8FC30019C5BB9A3685A78997857
:1064000042EA0122A5F8FC209A884E48114622F063
:1064100067FB204616F092FE082140F6014004F08A
:10642000ABFD0446002867D00821084421F033FC66
:1064300095F8D030D907024679D53FA1D1E90001BE
:106440001EF0D4FE2146002240F6014004F0F0FD8B
:10645000044600287FF4ECAE014601AA4FF6014045
:1064600004F0E6FD044648BB019816F067FE21469D
:1064700001AA4FF6024004F0DBFD0446F0B9019E8C
:106480003148B168022201311EF0BBFC304616F0E3
:1064900055FE95F8B9305B0710D501AA21464FF695
:1064A000034004F0C5FD48B9019C2848A1680122B9
:1064B00011441EF0A6FC204616F040FE1FF031FAF3
:1064C000044600287FF4B4AE06F00EFC0446002813
:1064D0007FF4AEAEEB79002B3FF4AAAE04211C484A
:1064E0001EF013FE05F064F8A2E6022140F66D40AE
:1064F00004F042FD044610B96FF0680498E60221EA
:10650000083021F0C8FB0123037046702146324653
:1065100040F66D4004F08CFD044600283FF4C4AE04
:1065200086E600297FF478AF6FF0040480E609481E
:106530004FF0005184E700BF9088000200800020E7
:10654000D000002000010020B9000020B800002089
:10655000CC000020108800022DE9F843D0E90B356B
:10656000D0F828805C193034A0450F46164619D85B
:106570001D4DA3FB05011AA3D3E90023FFF7C0FDBE
:106580000346A4EB0800A0FB050123F07F4414A3FD
:10659000D3E90023FFF7B4FD20F07F403C6030607A
:1065A000BDE8F883DFF840900DA3D3E90023A8FBF2
:1065B0000901FFF7A5FD044605F1300008A3D3E962
:1065C0000023A0FB0901FFF79BFD24F07F4420F08E
:1065D0007F403C603060BDE8F88300BFAFF30080CF
:1065E0008D49FD1A0700000000CA9A3B0000000018
:1065F0002DE9F04F8FB0002800F03C81AA4C94F8B0
:106600006A6016F0010640F0B98194F82500FF2376
:1066100000F0030084F8263013F072FA94F86A0050
:1066200041072DD494F8292094F8353004EB8202E8
:1066300004EB8303D2F82C80D3F83890B8F1000F24
:1066400011D0994841460DF0D1FD98F800305A0616
:1066500005D5062109F082F9002800F0CC81924886
:1066600049460DF0C3FD98F8003013F00E0F40F0CE
:10667000EE80236A9BB10C2630460FB0BDE8F08F48
:10668000324604F16B01C0F3C00013F0A1FBFF28F8
:1066900084F82600C6D0304613F04CFAC2E70CF05E
:1066A00057FC8246002800F0B0810CF05DFC834668
:1066B000002800F0AF810EF09FFC0546002800F096
:1066C000A681406F4FF6FF732B8505F11C03002850
:1066D00000F0978105F1680205F164010B9309F060
:1066E00049F9B5F86020714B22F4EF6222F00702FD
:1066F00042F4887242F00102A5F8602095F8392032
:1067000002F03F0262F07F0285F8392095F87A2086
:1067100022F0070285F87A2095F83C2022F0070243
:1067200085F83C2095F8D82022F0070285F8D8207B
:106730004FF01B120027C5E916230622A5F8C0203A
:10674000C5E912776F67A5F87870EF852F6385F834
:106750003B702F65A5F8C470A5F8C870A5F8D07077
:10676000A5F8CC70A5F8E47085F8E670C5F8087156
:10677000A5F80C71A5F820710BF0D2FE95F83A211E
:10678000A5F8387122F0030285F83A2195F87A20AD
:10679000A5F8407122F0180285F87A2095F8662154
:1067A00085F8437122F0070285F8662195F8862165
:1067B000C5F844A167F3451285F8862195F8AE2106
:1067C000A5F8647167F3C302C5E94A0100210020FE
:1067D000C5E94C0185F8AE2185F8D970A5F884711A
:1067E000C5F8E070A5F8AC71A5F8B8710EF03AFFE5
:1067F000A5F8D2000EF03CFFD5F8BC112C4AA5F844
:10680000D4000A40C5F8BC210EF038FF95F8C0212D
:1068100060F3020285F8C0210EF036FF0B9B236265
:1068200095F8C031C5F8C47160F3C503C4E918AB6D
:10683000C5E97477C5E97277C5E905772F70ED6111
:1068400085F8C03114F004FA002840F0D68094F89E
:1068500024300121C3F342030DF133008DF83330AE
:1068600009F006FA30BB236A002B3FF404AF0DF0A9
:106870008BF900E70C4B93F86A6016F001063FF4C1
:10688000FBAE1A6A5AB192F8201041F0020182F868
:1068900020101B6A93F82030D8073FF5ECAE0FB0FC
:1068A000BDE8F04F0DF0B2B99C2500204801480129
:1068B0000000FFF699F80110024640460DF04AFA32
:1068C0005949B4F8689031230025A360A0FB010169
:1068D00053A3D3E90023C4E9055525706560E5603D
:1068E000FFF70EFC20610AF0D7FA0746B9F1000F56
:1068F00008D198F8005005F00F05A5F10105B5FA8B
:1069000085F56D0994F8240065F3000010F0010589
:1069100084F8240037D02369444ADFF814910493A3
:10692000002002250DF13408019305920321CDE9E1
:10693000020006943B460090CDF82080CDF81C90D4
:106940002A460D950AF0DAF941460CF0B7FB00280B
:1069500089D1384A05924AF2D8320092CDE9030033
:10696000CDE90100CDF81C90CDF8208006943B467F
:10697000012203210D950AF0C1F92FE000263046CF
:106980000FB0BDE8F08F23692B4A2C48049303F223
:106990004713A9FB0001069402951360912303FBA2
:1069A0000911234B0793214B05934FF6FF7309926F
:1069B0004FF0020903930DF1340819A3D3E9002322
:1069C000CDF83490CDF82080FFF79AFB3B46CDE917
:1069D00000504A46284603210AF03AF941460CF095
:1069E0006DFB00287FF43FAF94F86A3043F0010359
:1069F00084F86A3040E612263EE60DF0C5F803261C
:106A00003AE605F16C00686764E6072634E6584606
:106A10000CF0B0FA50460CF0A1FA07262CE600BFA5
:106A20008D49FD1A0700000000CA9A3BCD3D0300C6
:106A3000C12503001139030010260020002AE78435
:106A400070B590F824308AB0C3F342030D46044673
:106A500001210DF1230016468DF8233009F008F9C5
:106A60007178024628460DF075F91D491AA3D3E93D
:106A70000023A0FB0101FFF743FB23699842054671
:106A800020D21B1A00220192164A0293164BA21A18
:106A9000A3FB02320221920900230A4409AE0991A4
:106AA00012490591CDE903330321D2B20696009332
:106AB00018460AF097F931460CF000FB48B92561F9
:106AC0000AB070BD02D9C21A0023DCE700200AB068
:106AD00070BD0C200AB070BD8D49FD1A0700000082
:106AE00000CA9A3B9C25002009CB3D8DC12503009F
:106AF0002DE9F04FC38D468EB0F8E8701E4490F833
:106B00000E31B6B2314413F007038BB004461FFABE
:106B100081F940F09181A9EB07011FFA81F909047D
:106B200000F1F281904690F93920002AC0F23081BC
:106B300094F8E43084F8E53094F8842194F88531B1
:106B400094F80C1184F80D11934206D094F8863114
:106B500003F00F03062B00F04C82A94BD4F8085128
:106B60001A68944204BF00221A60002D00F034819C
:106B70002868002800F03081628DB4F81031416837
:106B8000C4F808119342B4F8122100F00981B4F856
:106B90001411B4F828C0EB8318232B710023A5F837
:106BA00006C02A8469842B7729460CF0E9F90CF099
:106BB000F1F9A368002B0ADAE168626823F0004368
:106BC00091422CBF88449044A360A8EB0308B4F81A
:106BD0002AC0B4F810511CFB09FC1FFA8CFCBCFB4A
:106BE000F5F315FB03F080B284451FFA83FA80F0B9
:106BF0009D81A0EB0C0040F2E242824902FB00F0D2
:106C0000A0FB01017CA3D3E90023FFF779FA20F070
:106C10007F408044E38D1F44BF1B94F939305744B3
:106C2000E785002B40F2E24707FB05F6C0F29081B2
:106C3000754A7649764840F69C431CF007F8404078
:106C400080F311884FF0030002DF0027B346714A3A
:106C5000B4F81431B4F812016F49A0853244B2FB84
:106C6000F6F2A4F8C62042F2107202FB0363013B65
:106C7000B3FBF6F3A4F8C230B4F8103163853144A5
:106C8000831DB1FBF6F18AB29A42A4F8CE2004DD4E
:106C9000C0F57F43FA331A4492B294F80E31A4F847
:106CA000CA201B0744BF0023A4F8C43002210120DE
:106CB00015F088FF002202218146012008F0AAFE7B
:106CC00056494FF4F072204608F034FE00F1030AF2
:106CD0005FFA8AFA524B00945246012100200AF0D2
:106CE00099F830F002030CD0474A4E49484840F624
:106CF000CB431BF0ABFF404080F311884FF0030003
:106D000002DF404EABFB066B3BA3D3E900233046CA
:106D10005946FFF7F5F90894069423690493424B0A
:106D200020F07F45A5FB0331F01A404B07934FF04D
:106D300007023F4B059302FB05114FF6FE736BEB09
:106D4000010103934FF47A720023FFF7D9F9434608
:106D5000CDE90150009752460121002009F0CEFFF5
:106D600030F002030CD0284A2E49294840F6E5436A
:106D70001BF06CFF404080F311884FF0030002DFEE
:106D8000B9F1000F40F02F8100200BB0BDE8F08F6B
:106D900090F8D920002A3FF4CBAE80F8D930CBE66A
:106DA000A18D9142B4F814117FF4F3AE40F2E24E9B
:106DB0000EFB03FE42F2107C0CFB01EC0CF1FF3CDD
:106DC000BCFBFEFCB4F8C2E01FFA8CFCE6457FF485
:106DD000E0AE01232B71E7E60B4A16490C484FF44D
:106DE00042631BF033FF404080F311884FF00300F3
:106DF00002DF2868C0E600BF8D49FD1A07000000C9
:106E00003026002000CA9A3B98A4040084A0040005
:106E100024A00400FF5962027FC3C9013815002075
:106E20005148030078A504008D49FD1AF947030075
:106E3000FD8E030064A5040001200CF0B1F80646A5
:106E4000002800F0E480844808F03EFD0546002854
:106E500000F0DD80814B1A68002A00F0D0800CF031
:106E6000BDF82B793268D4F80811516043F0030360
:106E7000C4F808612B710C236B71D4F81821784980
:106E80000020E871A1FB021294F81C312B72920AC7
:106E9000A38DA5F80920B4F81021A5F80B20B4F8AB
:106EA000122194F80E11A5F80D200633B4F8142120
:106EB000A5F80F204B44D4F8C4219BB260F3020123
:106EC000A4F8E83084F80E11A5F811300AB394F84C
:106ED00066319E071DD494F8BF31D80719D4D4F871
:106EE000D0319A42D4F8C83100F09480002B00F0E1
:106EF0009E80D4F8CC2113682B6015602A68C4F8F2
:106F0000CC510AB9C4F8D4516FF076000BB0BDE88B
:106F1000F08FD4F8C831002B73D0D4F8CC311A6874
:106F20002A601D602A68C4F8CC51EAE705FB13C14A
:106F30004C4840F2E24389B203FB01F1A1FB00019E
:106F400043A3D3E90023FFF7DBF8A8EB000861E6D1
:106F5000226CA36C02FB1933A36413F0CBFE05462D
:106F600094F8D800C0F3C20013F0C6FE054406FB37
:106F700005F53D4B94F81C2105F5742505F23F25D8
:106F8000A3FB0535AD0C07FB02F2A36C226505FBE4
:106F90000AF072080344963A934228BF13462564C8
:106FA000A6EB050B2F4DC4E911230023C4F8E030F4
:106FB000A0FB050126A3D3E90023FFF7A1F8284B86
:106FC000A8EB0008D4F81801A3FB0030800A07FBE7
:106FD00000F01FA3D3E90023A0FB0501FFF790F801
:106FE00020F07F4733E601220221104608F012FD0F
:106FF000CAE6002384F88521A4F8C830ADE51C60FA
:107000002DE72A60C4E97155C4F8CC5179E76FF0D7
:107010006800BAE61168C4F8D011002B7FF469AF9C
:1070200013682B6015602A68C4E9725569E7137903
:1070300003F00303032B02D0C4F8C8215BE7D37924
:10704000032BEDD00A2BF7D1EAE700BFAFF30080A6
:107050008D49FD1A07000000C426002030260020BC
:107060005917B7D100CA9A3B83DE1B4300000000CA
:107070002DE9F04F0B68D2F800A0D3F800B0037FE1
:1070800097B00C46C3F3801300F11E010546164667
:1070900014A806228DF847301DF0B3FE677CFF2F41
:1070A0000DF148095CD04A460DF14701384612F00F
:1070B00037FA9DF8473002338DF8473029460322CE
:1070C00051F82E3B0B9306F1080006F104081DF061
:1070D00098FE06F11803042205F12A0140460C939C
:1070E0001DF08FFE0C9B052205F13A0118461DF09C
:1070F00088FE0C9B0521184608F0BAFD737F95F8B1
:107100003F2000F03F0060F305037377C2F30403F0
:10711000B377AB8EF381012899B202F01F0305D932
:107120001B3303F01F030B2B00D8F9B996F820305E
:10713000EC680B98002262F300030127CBF81420BF
:10714000294686F820302F710BF01AFF206827712E
:1071500021460BF015FF0BF01DFF17B0BDE8F08FB7
:10716000062214A948461DF04CFEA7E7236800201C
:10717000586095F8363095F8370043EA002333829B
:107180009AF8D830520962F3C5036A8E8AF8D8306B
:1071900040F2E24303FB01F10E920C9113F0AAFDC1
:1071A0000D909AF8D800C0F3C20013F0A5FD0D9A17
:1071B0000C99104401FB00F0C14A00F5742000F264
:1071C0003F20A2FB002095F8312040F2E24302FB71
:1071D00003F3B3634B08800C963B7062B3622B8F52
:1071E000B84AADF83E301846B74B8C460B44624463
:1071F000B3FBF1F3B2FBFCF2318AAAF8C62082B2EB
:1072000042F2107000FB02C2013A881DB2FBFCF290
:10721000AAF8C2209AB28242AAF8CE2004DDC1F5B3
:107220007F41FA310A4492B2AAF8CA2041460422A8
:107230000AF1DC001DF0E5FD2B4613F81C2FC2F30C
:1072400040120D92DA0700F114814FF48073AB8382
:107250009BF8260012F0D2FE002800F0EA800622F9
:1072600005F1240105F12B001DF0CBFDFF2F00F0EF
:10727000E78014A9062205F125001DF0C2FD9DF846
:107280004730AB774946062205F11F001DF0B9FDD6
:107290009AF8D830F2896A86328AAA86C3F3C20382
:1072A000BDF83E2085F83830EA8650460DF0B0FE35
:1072B0002946B081E88065680B980BF061FEB389C0
:1072C000EB801B232B710D9B2F68002B40F0BF80A0
:1072D0000D9B2B77294638460BF052FE0BF05AFED9
:1072E00096F84500B6F84070B6F84250012100F01B
:1072F000070013F00FFB3D4405F5E17529188046A2
:10730000724800273123CAF80830A1FB00016AA3A4
:10731000D3E90023CAF80470CAF80C70FEF7F0FE37
:10732000766A0C9B0E9AE56820F07F409E1B40F227
:10733000E24303FB025502213A46CAF8100001203D
:1073400008F068FB58460CF00DFF821C604BCDF82E
:1073500000B0D2B23846012109F05CFD05F2B24519
:107360000128A5EB080500F091809BF82430DB078D
:1073700077D450460DF04CFEDFF85091A6FB0986FD
:107380004DA3D3E90023834631464046FEF7B8FEBD
:10739000A368504A07920BF10304A3F13A0B4E4B3A
:1073A000CDF818A020F07F47A7FB0331B8EB03000E
:1073B0004A4B05934FF4E4730893DAF810300493C2
:1073C0004FF0000303934FF0070303FB071166EB35
:1073D00001014FF47A720023FEF792FE36A3D3E93F
:1073E0000023CDE90170A5FB0901FEF789FEE4B297
:1073F00020F07F4000905B4622460121002009F0EA
:107400007DFC30F002030CD0354A3649364840F254
:10741000C9131BF01BFC404080F311884FF00300A0
:1074200002DF01220221104608F0F4FA17B0BDE88D
:10743000F08F0146062205F12B001DF0EDFC15E74B
:107440000622002105F125001DF0E6FC17E7737FF9
:1074500043F040037377404611F06CFE0123F08344
:1074600037E70023012200931846114609F0D2FCA9
:107470007FE71B4A1D491C48F1231BF0E7FB4040F6
:1074800080F311884FF0030002DFDEE60BF056FEBA
:1074900083453FF46AAF124A1549134840F29F23CF
:1074A0001BF0D4FB404080F311884FF0030002DF53
:1074B0005BE700BFAFF300808D49FD1A07000000B5
:1074C00083DE1B43FF5962027FC3C90100CA9A3B96
:1074D000C18E0300918E03008D49FD1AFD8E0300BD
:1074E0008CA6040078A5040024A004000CA10400CC
:1074F000E8A60400000000002DE9F04F8FB0DFF88F
:10750000D8800A900DF137010DF136000BF0B0FD77
:10751000324F9DF836A09DF837B009F0BDFCD8F881
:107520000040A4FB07542AA3D3E900238146214647
:107530002846FEF7E5FD0A9B0B90D8F80400069359
:10754000274B0593002622A3D3E90023A0FB0701C4
:10755000CDE90766FEF7D4FD0B9B23F07F47214B57
:1075600020F07F40A7FB03310722CDE9036002FB37
:107570000711E81A64EB01014FF47A720023FEF759
:10758000BFFD0096CDE901704B465A460321504697
:1075900009F0B4FB30F0020416D1134A134800235B
:1075A0001AF04CF868B19DF837209DF83600009429
:1075B0002346032109F02EFC6FF073000FB0BDE8E5
:1075C000F08FD8F80C00F9E76FF08B00F6E700BFFA
:1075D0008D49FD1A07000000E036002000CA9A3BE2
:1075E00041EA03008D49FD1A447B0B00F036002070
:1075F00038B50F4D044609F04FFCA96809F04EFC60
:107600006968B0FBF4F404440A4807A3D3E90023F3
:10761000A1FB0001FEF774FD20F07F40844294BF7F
:107620000020012038BD00BF8D49FD1A0700000071
:10763000E036002000CA9A3B01481AF04FB900BF5B
:107640006002002007B521F091FC4FF47A72A0FB94
:10765000020302FB0131C00B074A40EA41401060BF
:1076600000234FF400420548CDE900231AF0CEFE76
:10767000002003B05DF804FBB8190020300A002098
:1076800008B5044B187800F09BF9BDE808401BF0E2
:1076900018B900BF8C3B0020044B1A78824202D0FC
:1076A0001870FFF7EDBF0020704700BF8C3B002033
:1076B00008B521F05BFC4FF47A72A0FB020302FBD9
:1076C0000131C00B044A40EA41401060BDE8084067
:1076D0000020FFF7E1BF00BFB819002008B521F076
:1076E00045FC4FF47A72A0FB020302FB0131084A09
:1076F000C30B126843EA41439B1A47F2305293424C
:1077000004DDBDE808400120FFF7C6BF08BD00BF8B
:10771000B819002030B5184C8DB00022002303A901
:10772000204619F01DFE08B10DB030BD059DDDE904
:10773000030100F059F8B5FA85F56D09FF238DF8BE
:10774000183007908DF8205021F010FC4FF47A7219
:10775000A0FB020302FB0131C00B40EA4140C90B10
:107760008DE8030006ABCDE90A010FCB00F034F938
:107770001BF0A7F8D1E700BF7C0B00201FB583F0FA
:107780000103CDE9011203930022002301A904485B
:1077900019F090FD03481AF0A1F805B05DF804FB5C
:1077A0007C0B0020BC19002010B519F059FB0446D1
:1077B00078B10A490A4821F013FAA36809491B68FD
:1077C00020469847A3689B6833B12046984700201D
:1077D00010BD6FF01500FBE71846F9E715770200BA
:1077E000BC1900207D770200222303FB0011123117
:1077F000014B53F8210070472C9804002DE9F0410B
:10780000134B144EA3EB060807460D4606EBC106C4
:10781000C8F3C708A84504DC0024384621F053FD0E
:1078200013E032683B689A420AD1736838461B6895
:10783000984701280446EFD0022804D00028ECD154
:1078400001350836E6E73D7100242046BDE8F081A9
:1078500084B504006CB50400F8B5466807690546B0
:10786000306819F0FDFA3860002844D07379317916
:1078700043F40072D0F810C0D0F808E013F0010F04
:107880004FF00104DCF8003004FA01F414BF234384
:10789000A343CCF80030DEF80030984770BB02F00C
:1078A00073F8184801F0AEFF044610BB164917489C
:1078B00021F0BCF9164801F04FFF7B795BB9012339
:1078C0003B710022002311481AF070F8AB681B6866
:1078D0000BB128469847F18859B140F2E7304FF490
:1078E0007A72002300EBC1300021FEF709FC1AF088
:1078F00061FB2046F8BD6FF01504FAE76FF0040451
:10790000F7E700BF7002002015790200A80D0020E3
:1079100034AF040030B58BB0084C204619F0A0FA03
:107920000569074A23462821684602F06BFE0122BA
:10793000291D684601F0D6FE0BB030BD3EAF0400F5
:1079400048AF040008B54FF4F012002302481AF0C3
:1079500061F800EAE07008BDA80D00202DE9F341B0
:107960000C461646134901AA1F461BF05BFFD8B10F
:10797000DDF80480B8F1000F16D1012C17D10E4D9F
:107980002246291D3846B047002806DB6C712C7949
:107990000A482CB11AF0ABFF404602B0BDE8F081B6
:1079A0001AF0B7FF2046F8E76FF00100F5E76FF037
:1079B0001500F2E73EAF0400CC1900204C940400FF
:1079C00010B504460C2021F085FC024A02600472C6
:1079D00010BD00BFD098040084B070B504AC84E83A
:1079E0000F00202021F076FC0446084B44F8083BA9
:1079F00004AD06460FCD0FC495E8030084E80300EC
:107A00003046BDE8704004B0704700BFD498040011
:107A10000268034B9A420CBF08300020704700BF39
:107A2000D498040010B504460C2021F053FC024AFF
:107A30000260047210BD00BFDC98040082B038B54B
:107A400004A981E80C000546114819F009FA04461A
:107A5000A0B16B68012B0CD0022B05D0A3B9BDE8F7
:107A6000384002B01AF07BBF1AF080FF0028204691
:107A7000F5DCBDE8384002B01AF06ABF6FF00400D0
:107A8000BDE8384002B070476FF08500F8E700BFEE
:107A90003EAF040082B010B502A981E80C00044694
:107AA0000A4819F0DDF958B16368022B06D11AF0C3
:107AB0005DFF0028CCBF002001206060002001E0B5
:107AC0006FF00400BDE8104002B070473EAF040004
:107AD00010B504460C2021F0FDFB024A026004723E
:107AE00010BD00BF10990400014819F0F7BE00BF97
:107AF0008802002037B50F4CA5682C21EB68204682
:107B00009847A0B92C212B696A462046984770B93E
:107B1000094C009B22789A4209D0D8B2207000F01C
:107B2000EDFC20B92078FFF7D3FF1AF0CAFE03B0AE
:107B300030BD00BF649404008D3B002013B50B489A
:107B400020F01FFE70B1FFF7D5FF044638B94FF49F
:107B5000F01200230648CDE900231AF057FC204616
:107B600002B010BD6FF01204F9E700BF6494040086
:107B7000680A002010B504460C2021F0ABFB024A35
:107B80000260047210BD00BF149904001FB51024D8
:107B90000294044C0194BDF8184000941FF087FA39
:107BA00004B010BDA13B002007B5064B0093064969
:107BB000064805234FF4247219F096FE002003B006
:107BC0005DF804FBA8990400883C0020D80D002033
:107BD00070B50F4D0F4E8AB000220023694628462B
:107BE00019F0BEFB044608B10AB070BD2146182248
:107BF00004A81DF011F910230DEB03012046059692
:107C0000CDF818D0ADF81C3006F0DCFBE4E700BF7F
:107C10004C0B0020309904001FB50E490E4840F669
:107C2000CD42002319F046FB044670B110F10B0F52
:107C300008D1002200236946074819F091FBFFF79D
:107C4000EBFF0446204604B010BD0449044820F070
:107C5000D0FFF7E7A13B00204C0B0020C002002022
:107C6000D80D0020C208054900F007000123834019
:107C7000885C03438B54FFF7CFBF00BFA13B0020BC
:107C8000C10810B4054C00F00700635C012282407B
:107C900023EA0203635410BCFFF7BEBFA13B0020E0
:107CA00008B5B1FA81F0044B40091870FFF762FF84
:107CB000BDE808401AF005BEB13B002070B503785E
:107CC0008AB004460E4607AD032B20D8DFE803F048
:107CD00002191B1D114928461DF055F863780493BD
:107CE000A3780393E3780293237901936379009354
:107CF0000B4AA37905951E2130461AF0B4FF0AB04D
:107D000070BD0849E7E70849E5E70849E3E7084A9D
:107D10000A2128461AF0A7FFE0E700BF4EB0040092
:107D200077B0040055B004005CB0040066B00400F5
:107D300070B0040000B589B01EF0D0F86946FFF7B6
:107D4000BDFF054B00201870FFF714FF1AF0B9FDB6
:107D500009B05DF804FB00BFB13B002070B5002006
:107D600088B003F037FC0646B8B901F00DFE0C48A8
:107D70000C4D01F0F1FC0C4801F0EEFC0B4804F056
:107D800027FE0FCD03AC0FC42B6823600849009673
:107D90003346032203A804F02BF9304608B070BD27
:107DA0009AB00400809704009EB00400D002002026
:107DB000B0990400024B1870024819F08FBD00BF43
:107DC000F1090020F002002008B5044801F0A4F9F0
:107DD000002818BF6FF0150008BD00BFB57D020078
:107DE000084B1B78033B082B08D8DFE803F0090594
:107DF00009070707070705000020704701207047A3
:107E000002207047F10900200148FFF7CDBC00BFF8
:107E1000A1B0040010B5094C0A44914200D110BD34
:107E200011F8013B584003090001E35CC0B2434034
:107E300018091B01205CDBB25840EEE7A7B0040034
:107E40000B6801330B60014B1B68184700030020CF
:107E500007B50B46002102460191034801A900F035
:107E6000F7F803B05DF804FB417E020030B585B041
:107E7000CDE901010446002501A90548039500F05C
:107E8000E7F8DDE902309842B8BF255405B030BDAF
:107E9000272C04002DE9F84FB0F8189019F00808C5
:107EA000044693460DD001290CBF49F0100949F052
:107EB0002009A0F818908BF31188BFF36F8FBDE8ED
:107EC000F88F09F0070902290DD120461AF0F3FEB8
:107ED0000028F0D00138238B042869D8DFE800F0AF
:107EE0000368505A61006769218B002F15DA2568F5
:107EF000C4E9008821F0070141F001012183002637
:107F0000218B01F0070ACA4502D0A368002B52D189
:107F10000DB9002E69D000234EE001F007035A1F6F
:107F2000012A1CD821F00701062B256889B2C4E973
:107F300000880AD13DB1638B2A46126801339BB297
:107F4000002AFAD1638341F00201218320461AF00E
:107F5000B2FE06460028D3D041F02001CEE7042B24
:107F60000BD121F0070189B2218320461AF0A3FE2C
:107F7000054618B141F02001218300252E46BFE7B8
:107F8000226923F00703166843F0060323830025C4
:107F90002F46B5E7226923F00703566843F0040330
:107FA000F4E7226923F00703966843F00503EDE741
:107FB00000252E46ECE7012341F0080121838BF3D5
:107FC0001188BFF36F8FFBB985BB16B11F492046DF
:107FD000B0474FF02003EFF3118B83F31288BFF308
:107FE0006F8F238B23F008032383238BDA0625D599
:107FF00023F0100323830121B4F8189009F0070936
:1080000000297FF460AF56E7A1680029DCD0D1F8E1
:108010000090D1F804B03B4652462046D847B9F10B
:10802000000FD1D04946D9F80090F2E729463B46E7
:10803000524620462D681AF05AFEC5E713F020017B
:108040001EBF23F0200323830221D5E71B2D04004C
:108050002DE9F04F8DB01D46531E01908A460293C4
:108060004FF00009029B5878252803F1010420D124
:1080700000211E464FF0FF3702360A4603913C4668
:108080004FF00A0C33780296392B06F1010659D8C5
:108090001F2B18D8002B00F0E881019B51462520AA
:1080A0009847029B51461878019B984709F10209AD
:1080B000D8E7002800F0D981019B5146984709F183
:1080C00001090294CEE7A3F120001928E5D80FF2A8
:1080D000080E5EF820F000BF418102009B80020084
:1080E0009B800200418102009B800200C58102004A
:1080F0009B8002009B8002009B8002009B8002000C
:1081000009820200418102009B8002001B82020062
:10811000D38102009B800200DF810200FB8102000C
:10812000FB810200FB810200FB810200FB81020057
:10813000FB810200FB810200FB810200FB81020047
:1081400019469FE7582B00F00D81A3F163005FFAF9
:1081500080FEBEF1170FA0D817289ED80FF2040E8C
:108160005EF820F0C3830200418202009B8002007F
:108170009B8002009B80020021820200418202005B
:108180009B8002009B800200218202009B800200F3
:108190009B8002009B800200118302009B800200F2
:1081A0009B800200A58302009B80020041820200A6
:1081B0009B8002009B800200118302009B800200D2
:1081C00021820200019B51462520984709F10109AF
:1081D00048E7039B03F0FE030393002752E7002CBC
:1081E0000BDA002F0BDA0398002800F0368124EA1E
:1081F000E4740CFB0434303C44E7002FF7DB0CFB49
:108200000733A3F130073DE7002F55F8043B80F218
:108210002681002B80F225815C420223039331E703
:10822000682B03D1682A06D148222BE76C2B02D198
:108230006C2A00F01881002A7FF42FAF1A4621E73C
:108240007A2A06D1752B55F8046B15D14FF0000B27
:108250000CE06C2AF6D04C2AF4D1073525F0070241
:10826000752BD2E9006B02F1080507D1202946D110
:10827000DFF80082013C0AE04FEAE67BBBF1000F29
:10828000F4DA7642DFF8F0816BEB4B0B013C0DF139
:108290002D03059300230493304659460A220023F8
:1082A000FDF72EFFDDF810C00CF1FF330493059BA2
:1082B000303203F8012D324605930A2A5B4673F1EA
:1082C000000306468B46E7D2CCF101030CF13002E5
:1082D0000DEB0206002FA6F1040604DA039A12F051
:1082E000010F18BF2746039AA7EB030BBBF1000F42
:1082F000D4BFE41AE41B92077AD4274671E02B29F5
:108300000ABFDFF87881DFF8788104F1FF34BEE737
:10831000702B27D155F8042B0020002A58D0DFF805
:108320006481023C03F06003A3F1390B0DF12D0EC3
:10833000002602F00F03092B88BF5B4430330EF890
:10834000013D102A4FEA121343EA00734FEA10115D
:1083500070F1000006F1FF3C20D2C6F1010306F1E6
:108360003002B5E76C2A03D155F8042B002008E051
:108370004C2AF9D1073525F007000546406855F825
:10838000082B232907D1404E3E4913F0200F0CBF84
:10839000B0468846C5E7DFF8E880C3E766461A4678
:1083A0000846C6E755F8046B30461CF0F6FC002F73
:1083B000034602DBB842A8BF3B46DFF8C480002773
:1083C00091E755F8043B8DF8183006AE0123F4E729
:1083D0002E4E0523F1E703935146019B2020984739
:1083E000039B013FF7D524EAE472013C9144A41AAF
:1083F000A9EB080704E003935146019B9847039BB0
:1084000007EB080918F8010B0028F4D15F46013F7B
:108410000FD52BEAEB7B1F46013F11D5002BA8BFE0
:108420009B442646013E13D5002CA8BFA344D94443
:1084300018E603935146019B30209847039BE6E7DB
:10844000039316F8010B019B51469847039BE3E702
:10845000019B514620209847E4E70123DEE61F46B2
:1084600010E61C460EE64C220CE648460DB0BDE870
:10847000F08F00BFB9B00400B7B00400BBB0040077
:10848000F1B00400BDB00400C0B00400C3B00400EB
:1084900008B54FF02002EFF3118382F31288BFF387
:1084A0006F8F02F0DFF803481AF0D0FB01F0B2FD45
:1084B000FCE700BFC9B004001FB507240294044CB8
:1084C0000194BDF8184000941EF0F1FD04B010BDF9
:1084D000F209002010B5084C86B024788DF81740BA
:1084E000012402940DF117040194BDF8204000947A
:1084F0001EF0DDFD06B010BDF909002000B589B001
:1085000064288DF8070019D80E4B18221870002126
:1085100002A81CF081FC0C4B03930DF1070304939C
:1085200002A901230020ADF8143005F04BFF10F133
:10853000800F08BF002009B05DF804FB6FF0150044
:10854000F9E700BFF9090020689A04002DE9F74314
:108550000F4606460821C06ADFF850901AF010FF57
:108560003C68241A80463C6004EA0905AC4203D802
:10857000002003B0BDE8F08308236A462146304658
:108580001AF073FE0028F4D1694630461AF002FF53
:1085900040B1BDF80230BDF804203C6005EA090591
:1085A00013441D44A4EB0804E0E700BF0000FFFFF4
:1085B0002DE9F047044688B00D4600F1140738460F
:1085C00020F0B9F9284618F04BFCA062002800F012
:1085D00020818368DB689847E06228B96FF0150551
:1085E000284608B0BDE8F087A06A8368DB68984732
:1085F0000368013B1F2BF1D8A06A216805AA1FF070
:1086000060FD0028EAD1A589002DE7D0069BB5FBC7
:10861000F3F203FB1255002DE0D1E389012BDDD9E4
:10862000E36A009593F804904FF0FF334FF0FF3268
:10863000384618F0EFFEE06A08211AF0A1FEA846BD
:108640000646E3891FFA85FA534546D8E389434530
:1086500000F0D48053450BD1009908234A46891B6A
:1086600020461AF03AFE18B9E08969461AF07DFEF4
:1086700069462046FFF76AFF0546002840F0C080A3
:10868000009B63604FEA13484FEA0848C4F808802B
:10869000D4E9011399420ED3082301AA20461AF007
:1086A000E4FDC0B901AB13F8012B914540F0C18046
:1086B00001300828F7D16368E0891B0C1B04694668
:1086C00000931AF052FEA38900994A4620461AF0F8
:1086D00004FE002825DA054692E0A1892B04891BB7
:1086E00013FA81F14A460823204600911AF0F5FD5D
:1086F00078B1E08969461AF038FE08F1010800995E
:1087000008234A4620461FFA88F81AF0E6FD00289A
:108710009CD0013595E7002A00F09F806FF01C0582
:108720006EE0636845D006EB03084FF6FF79A38936
:10873000CDF800801FFA88F29B1B9A4215D361681E
:1087400020461AF0EFFD0028C5D16368454AA1898B
:1087500013400B44A3EB460363601340A360204621
:108760001AF00DFF00283FD0B5E7082303AA4146C1
:1087700020461AF07AFD0028ADD103A920461AF050
:1087800009FE38B1BDF80C304B4503D1BDF81030AF
:10879000002B41D0B044CAE75B1A4A4620461AF083
:1087A0009CFD002897DB08D0E26AA3681268134496
:1087B000A360D4E901318B42EED86168A38901EB53
:1087C00046029A42CED1DFF89C80A36801EA0802F3
:1087D0009342C7D020461AF0A5FD00287FF47BAF56
:1087E000636803EA0803A360A389A288A3EB460396
:1087F0009A4205D120461AF0ADFE6CE76FF02C05C9
:10880000384618F07FFE002D7FF4EAAE0123237472
:10881000E6E66FF00505E3E66368E0891B0C1B04E0
:10882000694600931AF0A1FD009920461AF07AFDDE
:1088300098E701A920461AF0ADFDD4F804A060B174
:10884000BDF80820BDF80610E06A11441AF098FD42
:1088500040445045A0603FF45EAFAAEB060363605E
:1088600016E700BF0000FFFF2DE9F04F1E46037C16
:1088700089B0044689469046002B00F0B280C26A57
:10888000082110461AF07CFD3146824610461AF047
:1088900077FDA389A3EB8A039E42074600F2A480DA
:1088A0001EB1B8F1000F00F09F806368039304AA23
:1088B00003A92046DDF80CB01AF0A4FD05460028F7
:1088C0005AD1BDF810304B4505D06268039B9A42DF
:1088D000EDD1DEB950E004A920461AF05BFD002876
:1088E000F3D0BDF81200BDF8143076B19E420DD120
:1088F0004FEA1B41090401443346424620461AF020
:10890000C2FC002802DC054636E0ABB3002F37D1AD
:1089100004F1140A4FF0FF324FF0FF33504618F0C5
:1089200079FDDFF8CCB0E3899D4257D0D4E901232B
:10893000F9188A4227D3ADF81A3006A8FF238DF81C
:108940001E30ADF81890ADF81C601AF005FD3246E7
:10895000414620461AF0DAFD034638B906A92046FA
:108960001AF0E7FD002814BF034633460193504632
:1089700018F0C8FD019B1D46284609B0BDE8F08FE0
:108980005744BFB2C4E70821E06A1AF0F9FC4FF679
:10899000FF73ADF818300023ADF81C301318ADF894
:1089A0001A30A38902EA0B021A44101A606006A862
:1089B0001AF0D2FC06A920461AF0BBFDE089211D61
:1089C0001AF0D3FC636803EA0B03A36020461AF095
:1089D000D6FD03460028C9D10135A4E76FF01B037B
:1089E000C4E76FF00C05C7E76FF01505C4E700BFDB
:1089F0000000FFFF0C4BF0B45F6A0C4E0C4BB3420F
:108A000003D36FF08500F0BC70475D68BD4209D3A9
:108A10001C693CB195F802C00579AC4502D12346EA
:108A2000F0BC18472433EAE7D4190020A10D002038
:108A3000A10D00202DE9F047134CDFF85080DFF83E
:108A4000509005460E461746444503D36FF0850007
:108A5000BDE8F0876268D9F824309A4212D3A3693E
:108A600083B190782979884205D13A463146284623
:108A7000BDE8F04718475279012A03D13A463146FA
:108A8000284698472434DFE7A10D0020A10D0020DF
:108A9000D41900202DE9F0410B4CDFF83080054659
:108AA0000E461746444502D36FF0850009E063691E
:108AB0000BB92434F6E73A46314628469847002851
:108AC000F7D1BDE8F08100BFA10D0020A10D00206D
:108AD00007B583788DF800300379427943EA0223A1
:108AE000ADF80230C378684603F003038DF8043014
:108AF00014F0FEFE10F1780F04D018B1002003B07E
:108B00005DF804FB9DF8000014F078FF10F1780F79
:108B100001D00028F2D1024B012083F8B900EEE722
:108B2000D41900200248082200211CF075B900BFAA
:108B30008F1A002070B50B4B0B4CA34201D30020C1
:108B400070BD196A1E7F00220439D5B2AE4201D829
:108B50002433F2E7013211F832508542F5D1012079
:108B6000EEE700BFA10D0020A10D0020094808B5C7
:108B70000378C3F341130A3350F823303BB100F1BB
:108B8000080200F110019847C043C00F08BD184605
:108B9000FCE700BFD419002004282DE9F047DFF8D6
:108BA000888004460E460ED1FFF7BCFFDFF87C90AC
:108BB00099F8B9305BB100F001FD042C01D0012C13
:108BC00005D11B4D16E00528F0D00128EED0184D38
:108BD00045451ED3154B1B6A1BB331462046BDE8E5
:108BE000F0471847D5F820A000272A7FFBB29A4209
:108BF00003D824354545F5D307E00AEBC303013715
:108C0000187914F025FF0028EFDA002389F8B9302D
:108C1000DDE7EB681BB132462146284698472435EC
:108C2000D6E7BDE8F08700BFA10D0020D4190020D1
:108C3000A10D002073B5C4B263060D468DF8074040
:108C400007D02046FFF776FF88B10F4B93F8BA00A4
:108C500068B10D4E204665B114F06CFEF3690BB996
:108C6000012004E008200DF107019847284602B0D2
:108C700070BD14F087FEF369002BF1D00DF10701F0
:108C800009209847ECE700BFD41900202DE9F047F0
:108C9000A44EB36905460C46174663B9287800F020
:108CA0001F00012800F0A680022800F0108138B1D2
:108CB0006FF0150095E098470028EFD1002090E074
:108CC00095F9002039686B78002A2EDA062B0FD030
:108CD000082B24D0002BEBD101220A704B7096F8A0
:108CE000C320520042F001020A7002222260E5E72E
:108CF0006B88190A0A1F012ADAD90729D8D8DAB2EB
:108D0000736A1D78002DD3D05E788E4203D18242E3
:108D100000F0178101302B44F3E71B7816E196F839
:108D2000BA300B70012323605BE0013B082BBFD8F6
:108D300001A252F823F000BFD58D0200B18C0200D1
:108D4000E78D0200B18C02005D8D0200B18C020043
:108D5000B18C0200B18C0200698D0200A87814F079
:108D6000B5FD0028AAD0A3E76C88776A6CBBFFF733
:108D7000D9FE6B8886F8BA30F369002B9ED06A4919
:108D8000032098479AE77B78042B11D0052B12D04B
:108D9000022B05D197F805806A88424508BF01205B
:108DA0003B781F443C78002CEDD1002880D0DEE7D2
:108DB00097F80390F4E76B884345F1D1B9F1000FC0
:108DC000EED13846FFF784FEEAE74FF0FF080020B7
:108DD000C146E7E76B88012B7FF46AAF002086F875
:108DE000C300BDE8F0876B88012B7FF461AF86F884
:108DF000C33063E796F8BA303A68002B3FF458AFB7
:108E0000776AB5F804C095F804E03B461878002866
:108E10003FF44EAF5978022904D193F80480F0450D
:108E200000F296800344F1E7107050702160D8E79B
:108E30000F4499E00B287FF43BAF00244FF0FF0A6A
:108E4000D046A14606E07B78042B0FD0052B22D01C
:108E50003B781F443B78002BF5D1F36913B14946A9
:108E600007209847002C7FF429AF21E797F802A04C
:108E7000AA8897F8038092455346E9D169888845C6
:108E80001FFA88F2E4D1072B1ED83344B94683F881
:108E9000BB200124DCE7AB885345D9D1AB784345EF
:108EA0000DD0BC78204600F06BFB204614F0D0FDBE
:108EB00010F1780FEDD0B0FA80F46409C8E73846B5
:108EC000FFF706FE0446C3E7B9460024C0E795F95C
:108ED00000206B78002A19DA002B7FF4E9AE2D7997
:108EE0003F686B060AD02846FFF724FE00283FF4AF
:108EF000DFAE96F8BA30002B3FF4DAAE394628469A
:108F000014F060FD0020787002230CE7012B0DD0D7
:108F1000032B7FF4CDAE6B88002B7FF4C9AE01210B
:108F200008E000BFD41900208E1A002069880029AB
:108F30007FF4BEAEA888FFF77DFE00287FF4BEAEAA
:108F4000B6E602293B607FF4E8AE5B882360B5E6B5
:108F500095F900306878002BBFF66CAF00283FF41D
:108F600063AF0A287FF4A4AE397800293FF4A0AE9D
:108F70007B78042B7FF45CAFBB789C457FF458AFC3
:108F8000072B96BF9B19002393F8BB301370012366
:108F9000DCE700BF13B5134C237DCBB9E268A168B1
:108FA000019201AB80201AF002FC019AA3681344DD
:108FB000A360E3689B1AE36043B93AB12369E2888E
:108FC0009A4203DD9B0601D10123237502B010BD37
:108FD00000231A4619468020237502B0BDE81040D0
:108FE00014F05CBDD419002030B585B000230246D2
:108FF0000D460193002858D1002935D108220B468F
:109000000DEB02011EF0B9FE002804DA802014F0F6
:1090100091FC05B030BD2A4C029A2260039A62602E
:1090200004F13802A2609DF90820BDF80E302575C4
:10903000002AC4E903550ADB802B04D9802014F0F0
:1090400079FC0020E3E713B1C4E90333E1E7FFF75C
:109050008DFD0028DAD0E28823699A42D4BFE2600D
:10906000E360FFF797FFD4E7154CD4E90215002D14
:1090700001AB04DC1EF081FE0028CADAC6E72A46EE
:109080001EF07BFE0028D9DB019AA3681344A3607D
:10909000E3689B1AE360002BBBD104F13803A360A3
:1090A000FFF764FD0028DCD1B0E78028B1D1044B84
:1090B000DA68002AD5D11B7D002BD2D1A9E700BFE9
:1090C000D4190020054B064A9A62064ADA62064A1B
:1090D0001A63064A58629A6100207047D41900202A
:1090E0008D8C0200F5890200958A0200358A020003
:1090F000084B10B593F8B84034B900F0CBF830B154
:10910000FFF7E0FF204610BD6FF07700FBE74FF060
:10911000FF30F8E7D41900202DE9F3410446354D1E
:1091200035484FF0FF324FF0FF3318F073F995F8E0
:10913000B860002E5BD131482C62E86114F0C4FDA8
:1091400014F086FB041E36DB00F060FA041E32DBEE
:1091500040236846ADF802308DF804608DF8006059
:1091600014F0C6FB041E26DB802768468DF80070CD
:1091700014F0BEFB041E1EDB2149304614F090FDA6
:10918000041E18DB1E49384614F08AFD041E12DB4B
:109190001C4CDFF87480444514D3002014F02EFCDE
:1091A000041E08DB802014F029FC041E03DB0123CD
:1091B00085F8B8300024104818F0A4F9204602B011
:1091C000BDE8F081276A0026227FF3B29A4201D8D7
:1091D0002434E0E707EBC30257F83310107914F09A
:1091E0005FFD01360028EFD04FF0FF34E3E76FF06A
:1091F0007704E0E7D4190020380B0020998B020097
:10920000E98F0200A10D0020A10D002030B51F4BF9
:109210008BB005AA03F1100518685968144603C4F9
:109220000833AB422246F7D11B782370102200216D
:1092300001A81BF0F1FD1222002115481BF0ECFDE6
:10924000102101A81EF0A4FE00281BDD0828B8BFCD
:109250000820093801AB0E491A18002012F8013F06
:109260000AAC04EB131403F00F0328336B440130F2
:1092700014F8144C13F8143C0C7008284B7001F1CE
:109280000201EBD102480BB030BD00BF0DB10400AC
:10929000B23B00202DE9F04F654C85B000264FF021
:1092A000011BB1463546B24623782BB9614B0234D7
:1092B0009C42F3D15E481DE06378052B05D8DFE8BA
:1092C00003F075040375071FA24623781C44EBE7DF
:1092D000E378002BF9D1A3787BB109F101095FFA9A
:1092E00089F9F2E76A68944200F09A8024359D4239
:1092F000F8D3002005B0BDE8F08F4F4D4F4BF6E797
:10930000002DF6D0002301212A7F9342F1D22A6A50
:10931000A77802EBC3021079874201D00133F3E74B
:109320000127E07894F805C000F003008DF80C00E8
:10933000207940EA0C20ADF80A0094F902000028D8
:109340005FFA87F827DA07F1100001FA00F010EA57
:109350000B0F27D148F080008DF8080002A8CDE956
:1093600000321EF0F2FCDDE900320121D0B99DF897
:109370000830A37013F0800F18BF08F110081371A4
:1093800018BF5FFA88F80B460CBFBB4001FA08F320
:109390004BEA030B99E701FA07F010EA0B0F01D132
:1093A0004046D9E70137102FBBD1B7E7032E1DD1B7
:1093B000FFF72CFF074668B11BF0EFFC804648B171
:1093C0001F481BF0EAFC804504D142463946A01CE8
:1093D0001BF017FD23786FF00201E218091B04EB64
:1093E0005303D14213D50136F6B26EE7002EF1D108
:1093F000BAF1000F3FF47DAFA4EB0A038AF8023004
:10940000C3F307238AF803308AF80490EBE74FF0A0
:10941000000002F8010C13F8010902F8020DE0E760
:10942000AB68002B3FF459AF49462046984754E7B4
:10943000440D0020A10D0020A10D0020A10D002051
:109440000DB1040010B5094B00211A461C78844266
:1094500005D15C681CB1482303FB012010BD01311C
:10946000042903F14803F1D10020F7E7981A0020FE
:109470002DE9F34150F8303C10F8346C10330446B9
:1094800010D1036950F8282C99073CD502BB13F082
:10949000040304D11A46194630461AF088F900230D
:1094A00044F8303C54F8303C10330ED054F8205C73
:1094B0005DB154F8247C54F81C8C1FF022FA00286B
:1094C0004CD02E4821461FF094FB02B0BDE8F0813D
:1094D00050F82C1C01AB30461AF069F910B16FF04E
:1094E0001503DDE7019A54F82C3C134444F82C3C56
:1094F00054F8283C9B1A44F8283C54F8243C134464
:1095000044F8243CCEE750F82C1C01AB304614F054
:109510003DFB0028E3D1019D54F82C3C2B4444F83A
:109520002C3C54F8283C5B1B44F8283C54F8243C61
:109530002B4444F8243C002DB1D0304614F0CAFB33
:10954000B5FBF0F303FB1055002DA8D154F8283CCF
:10955000002BA4D0304614F061FBA3E744F8200CA4
:10956000A4F1180018F044F854F8303C8C33ACD017
:10957000424639463046A847A7E700BF10190020E9
:1095800010B54FF02003EFF3118483F31288BFF37B
:109590006F8FFFF757FF50B14368103307D16FF05B
:1095A0008B03436000F1340103481FF022FB84F376
:1095B0001188BFF36F8F10BD101900202DE9F04105
:1095C000104CDFF8448004256FF08B074FF0200328
:1095D000EFF3118683F31288BFF36F8F6368103344
:1095E00005D104F13401404667601FF002FB86F3A9
:1095F0001188BFF36F8F013D04F14804E6D1BDE847
:10960000F08100BF981A00201019002070B50A4C94
:109610000A4E0025314620461FF0E2FA0122A4F14D
:109620001800114601351FF05BFA042D04F14804BF
:10963000F0D1002070BD00BFCC1A00207194020050
:109640000C4B1B6870B573B10B4A15680022AA4217
:1096500002DB6FF0010070BD1C4613F8106B8642F0
:1096600004D00132F3E76FF00C00F4E70C60002047
:10967000F1E700BF3C030020E49A040070B588B015
:1096800005460C46C0B269461646FFF7D9FF0028CA
:109690001FDB009BEBB15A6802929A682168D86878
:1096A0000195CDE903260022CDE90612059217F0B7
:1096B000D7FB054600981AF092F86DB12846084984
:1096C00001AA1EF002FD079808B9059B236008B0A7
:1096D00070BD6FF01500FAE76FF01200F7E700BFFA
:1096E000E1370400104B2DE9F0411C6805460E4699
:1096F0001746ACB14FF0FF324FF0FF330B4817F075
:1097000089FE63683246D3F8088029463B462046E6
:10971000C0470446054817F0F5FE2046BDE8F08135
:109720006FF00104F9E700BFC01B0020240B0020EC
:1097300000230360044B5A6812B9C3E90000704764
:1097400010605860704700BFB81B0020014B1860C4
:10975000704700BFC01B002030B585B00023054610
:10976000CDE9023301904FF0FF330C484FF0FF3248
:1097700017F050FE0A4B1C6834B1636820461B6822
:1097800001A998472468F7E7284600F0C5F8044681
:10979000024817F0B7FE204605B030BD240B00206C
:1097A000B81B00201FB5CDE9010103924FF0FF3334
:1097B0000A484FF0FF3217F02DFE094B1C6834B1F8
:1097C000636820461B6801A998472468F7E70348A7
:1097D00017F098FE002004B010BD00BF240B00203D
:1097E000B81B0020024B0022C3E90022704700BFD3
:1097F000B81B0020024B0022C3E90022FFF7F2BF92
:10980000C41B002070B51B4C1B4E0546B44212D33E
:109810001A4E1B484FF0FF324FF0FF3317F0FAFD9E
:1098200034687CB1286854F8141C143C1BF0BCFA52
:10983000C8B16469F5E7216828681BF0B5FAA8B1DA
:109840001434E3E77268002405F114036C613AB93B
:10985000C6E9003314460A4817F054FE204670BD8E
:1098600013607360F7E76FF01004F4E76FF0100413
:10987000F4E700BFA896040020970400C41B002052
:10988000240B00202DE9F74307460E4609B10023BB
:109890000B601E4DDFF8789000244D4511D31D4B11
:1098A0001D6875B355F8148C01AA41463846143D1D
:1098B00019F0B8FF18B3DCB90EB1019B33602C4628
:1098C0001DE0D5F8008001AA4146384619F0AAFFEC
:1098D00060B124B90EB1019B33602C4606E02168CB
:1098E0000022404619F09EFF0028F3D11435D4E73A
:1098F00021680022404619F095FF0028DCD16D69EF
:10990000CFE7204603B0BDE8F08300BFA89604006F
:1099100020970400C41B0020F8B5184C184F0646C9
:109920000025BC4208D3174B1C6824B3143CAEB9C5
:10993000E368DBB96469F8E71EB9E3684BB914342E
:10994000EFE720680022314619F06CFF0028F4D1BF
:10995000F5E79847002D08BF0546F0E7206800228C
:10996000314619F05FFF0028E2D1E3E79847002D68
:1099700008BF0546DEE72846F8BD00BFA8960400EC
:1099800020970400C41B002010B5064C23783BB977
:10999000FFF730FF00F066F808B90123237010BD0F
:1099A0000020FCE7C43B00202DE9F047048FDFF8DE
:1099B000B0A0013498B080468946A4B200F10806F0
:1099C000651EADB2B5F5004F47D04A2305AA29461A
:1099D000304619F0E5FE04F57F543F34A4B2074643
:1099E000214601230DF10B02304619F0D9FE002F5C
:1099F000014603DC002803DC2C46E1E7002816DCE6
:109A0000B8F83830AB4209D142466B1E22F8383FD5
:109A10004FF4004102233046FEF726FF2946304628
:109A200019F063FE2146304619F05FFEE4E707F1C6
:109A300060030DEB0307002307F84C3C5246CDF8BA
:109A4000009003AB05A80396ADF8104019F023FF72
:109A50000028D1D018B0BDE8F0870020FAE700BF99
:109A6000013904007FB50123694602200193FFF705
:109A7000E7FD0446002836D102AA01A90220FFF71B
:109A8000FDFD10F1130F04462DD038B10C3405D074
:109A9000404080F311884FF0040002DF0399B1F5D4
:109AA000803F23D2009A00239568184608448542D7
:109AB0009CB203D30133082BF8D11C460D4D5368DB
:109AC000AB602846D368EC82A982EB6319F0B1FF42
:109AD000044640B9084E6E602846FFF729FE284626
:109AE0006E60FFF733FE204604B070BD6FF02004B7
:109AF000F9E700BFCC1B0020400300202DE9F8430C
:109B000005464FF02003EFF3118683F31288BFF36D
:109B10006F8F0E4B1C689CB10D4FDFF838804FF0F3
:109B20000C09D4E90132002D08BF13462BB198F877
:109B3000142009FB02F2B85C98472468002CF0D18D
:109B400086F31188BFF36F8FBDE8F8830C1C0020EB
:109B5000141C0020043B002041090A4ABFF35B8F1C
:109B600000F01F0001238340DB4302EB810252E837
:109B7000000F184042E800010029F8D1BFF35B8FC5
:109B8000704700BF201C00207FB51C4B1C7DBFF31D
:109B90005B8F04F01F0301229A40194B6109D043E7
:109BA00003EB810353E8001F01EA000543E8005678
:109BB000002EF7D1BFF35B8F114217D0114D0C224D
:109BC00002FB045207CA01AB83E807000E4A7AB1D0
:109BD00093E807001BF049F90020FFF78FFF0C23E3
:109BE0005C432A1900232B51C2E9013304B070BD34
:109BF00082F31188BFF36F8FEEE700BF043B0020B4
:109C0000241C0020141C00206B4E04002DE9F0439E
:109C1000354B364A1C7DBFF35B8F63094FEA8309DE
:109C200052F82330324DBFF35B8F04F01F0843FA24
:109C300008F313F0010F85B007460AD1014620460C
:109C400000F076F828B107C80C2303FB045383E81F
:109C500007000C236343EA18EE5C36B92046FFF791
:109C60007BFF304605B0BDE8F0837B1C0FD0D2F8F7
:109C700008C02048204A4FF4004600210023ECFB96
:109C80000601FCF73DFA0121381A1FF051F917F0CF
:109C90001FFF0120FFF732FFBFF35B8F174B01223D
:109CA00002FA08F24B4453E8000F104343E8000166
:109CB0000029F8D1BFF35B8F0C2303FB045595E813
:109CC000070001AB83E807000D4A1AB193E80700CB
:109CD0001BF0B8F8FFF758FF2046FFF73DFF18F0DC
:109CE000BFF80120BEE700BF043B0020201C00207D
:109CF000141C00203F420F0040420F00241C002093
:109D0000454E0400054BBFF35B8F53F82000BFF3B3
:109D10005B8FB0FA80F04009704700BF281C00201C
:109D200008B9024B0B600020704700BFE89A04009E
:109D30002DE9F04F85B00E4603A9FFF7F1FFDFF8DC
:109D400074A0DFF87480441E24B24FF400474FF033
:109D50000009631C04D10025284605B0BDE8F08F3A
:109D6000039A04EB440302EB830512F82300FFF788
:109D7000C9FFE0B168684FF0000BD4465946E0FBDC
:109D800007C142464B466046FCF7BAF90190A86805
:109D9000D4465946E0FB07C142464B466046FCF7B5
:109DA000AFF9721CD8D0019B1844B042D4D9013C01
:109DB00024B2CEE73F420F0040420F00014B18682B
:109DC000704700BF50030020F0B5082289B019F099
:109DD000FEFFCB6A03930B6B04934B6B05938B6B6A
:109DE0000693CB6B079313466A460C46064600273C
:109DF00011461046CDE90177009719F0FAFE314679
:109E00000546304619F0F5FE216B0391616B049114
:109E1000A16B0591E16B0544CDE90617104611468B
:109E200019F0E7FE31460544304619F0E2FE0544DC
:109E3000206A0090606A0190A06A0290A06B069070
:109E4000E06B07903046CDE90477039719F0D1FE17
:109E50000544606A0090A06AD4F838C00190E06AB6
:109E60000290CDF810C0606BD4F83CC00390CDE9EF
:109E700005C0206A0790304619F0BBFE0544E06A31
:109E80000090206B0190606B0290206A0690A06A9F
:109E900007903046CDE90477039719F0CBFF236B89
:109EA0000093636B0193A36B0293E36B0393636A69
:109EB0000693E36A07932D1A0823304619F0BAFF78
:109EC000636B0093A36B0193E36B0293236A039389
:109ED000636A0493A36ACDE90537236B07932D1AB0
:109EE0000823304619F0A6FFA36B0093E36BCDE97E
:109EF0000137636A0393A36A0493E36A0593636B70
:109F000007932D1A0823304619F094FF2D1A10D408
:109F10000D4C35B908223146204619F064FF01285E
:109F20000FD0082322463146304619F083FF2D1A00
:109F3000EFE7054A08233146304619F05AFE2D183E
:109F4000F8D409B0F0BD00BFEC9A04000449431EE8
:109F50000F3013F8012F8A5C1A708342F9D17047D1
:109F600031B10400F0B5264E07460C460FCE8DB039
:109F700001AD0FC50FCE0FC596E8070085E80700B5
:109F80003846002F38D0002C38D0381F21460246E2
:109F900010344B780D781B0443EA0563CD782B43CE
:109FA0008D78043143EA05238C4242F8043FF0D116
:109FB000144C04218A07036916D1C3F30742A55C38
:109FC0001A0EA25C42EA0562C3F30725DBB2655DA7
:109FD000E35C42EA054242EA032221F00303303304
:109FE0006B4453F82C3C534050F8042F013153403C
:109FF0002C290361DED101200DB0F0BD2046FBE726
:10A000009497040031B10400014910220A6070479E
:10A0100010ED00E072B6404080F31188BFF36F8FFF
:10A02000BFF34F8F30BF62B6BFF36F8F704700BF73
:10A0300072B6494081F3118820BF80F3118862B65F
:10A04000704700BF43B2002B07DB04495B0900F0F7
:10A050001F000122824041F82320704700E100E008
:10A0600043B2002B0CDB5B09064900F01F002033D4
:10A070000122824041F82320BFF34F8FBFF36F8F3F
:10A08000704700BF00E100E0054B420900F01F00EF
:10A0900053F82220012303FA00F01040704700BF5C
:10A0A00000E100E043B2002BA8BF03F1604301F1DF
:10A0B0000101B8BF064B4FEA4111ACBF03F5614344
:10A0C00000F00F00C9B2B4BF195483F800137047F1
:10A0D00014ED00E008B572B6044B9A691AB100227B
:10A0E0009A611EF019FC62B608BD00BF043B002057
:10A0F00030BFFFF7FDBF00BF0F4A08B50F4B22F07E
:10A100007F029A60BFF34F8FBFF36F8FD3F8882021
:10A1100022F47002C3F88820EFF3148323F00403C1
:10A1200083F31488BFF36F8F16F00EFF17F0D6FF7E
:10A1300000F094F916F012FF0060020000ED00E05C
:10A14000094A0A4993680968D967094998674B68B9
:10A1500043F080534B60002383F31188BFF36F8F6C
:10A160009368D86F704700BF043B00200CAF040019
:10A1700000ED00E00F498A684FF030001044EFF323
:10A18000098C80E8F01F202080F31288BFF36F8FC6
:10A19000094F4FF00066CA698A603E60906F0023E5
:10A1A000936780F3118802F1300090E8F01F8CF380
:10A1B00009887047043B002004ED00E01EF0040F06
:10A1C0000CBFEFF30880EFF30980816911F8021CDE
:10A1D0000229FFD001B51AF04FFD01BD42F8203C25
:10A1E000009B42F81C3C0A49019B42F8183C029B28
:10A1F00042F8143C21F001014FF0807342F8043C16
:10A2000042F8081C0023203A02658367704700BFAC
:10A21000932E0400074B9860104681F309880021B3
:10A2200063B681F31188BFF36F8F0022002318F00B
:10A2300030FE00BF043B002001B572B60B4A9069A6
:10A2400000281EBF002191611EF066FB62B6EFF38D
:10A250000580A0F110004FEAC0000549014409C97A
:10A260009847BDE80140034908470000043B00202F
:10A27000DC94040079A20200044B9968D8698842F2
:10A2800003D003494FF080520A607047043B00201E
:10A2900004ED00E00D4B9A6A9A6A9A6A920508D515
:10A2A0009A6B9A6A120404D518B19A6A22F4004291
:10A2B0009A629A6A9A6AD205044A58BF9B6A936A5C
:10A2C000002043F47F4393620870704700ED00E084
:10A2D0000E4B9A6A9A6A9A6A920708D55A6B9A6ADA
:10A2E000120604D518B19A6A22F080029A629A6A1C
:10A2F0009A6A9A6AD206054A58BF9B6A936A0020F6
:10A3000043F0FF0393620870704700BF00ED00E068
:10A3100070B5484B5B688AB00646C3F30803002556
:10A3200085F31188BFF36F8F02F07F40B0F17F4F4C
:10A3300011D102F00C0008280DD010074CBF0E46BA
:10A3400001250022033B8DF80720032B6AD8DFE8A4
:10A3500003F00454585C2E46F3E7364BDC6A14F0E5
:10A3600002045FD1DA6A002A14DBDA6A520011D5DE
:10A37000B26932F8021C4DF60272914209D093F88C
:10A38000282002B30DF107010120FFF7A1FF0446C9
:10A3900000E034689DF807309BB92022314602A8BE
:10A3A0001AF02FFD099B002D3ED0C3F3080222B9FD
:10A3B0006FEA53236FEA4323099302A920461AF058
:10A3C00059FC0AB070BD93F829202AB10DF107019C
:10A3D0000120FFF75FFFDAE75A8D92B2002AD9D049
:10A3E0009A6A9A6A9A6A9A6A9A6A9A6A9A6A6FEAF8
:10A3F00002426FEA12429A62CCE70DF10701002097
:10A40000C3E70DF107010020E3E70A4B9A6A9A6A55
:10A410009A6A9A6A9A6A9A6A9A6A6FEA02426FEA32
:10A4200012429A620024B5E723F4FF7323F001037C
:10A43000C2E700BF00ED00E0024A536943F0100399
:10A440005361704700ED00E0EFF30880EFF30981FE
:10A4500001B57246FFF75CFF01BD00BF0448002351
:10A460002021C2180133302B82F80013F9D1704734
:10A4700000E100E01EF034FF202080F3118808483E
:10A480004FF40061401880F30988EFF31480022133
:10A49000084380F31488BFF36F8FFFF72DFE000091
:10A4A000F05A0020064B9B68834207D1EFF30583E7
:10A4B00023B1044A536843F08053536017F0AABD98
:10A4C000043B002000ED00E0024B034A0348012159
:10A4D00000F05EB80000042000000020989B0400FB
:10A4E000F0B51F4E00258D4201DB1046F0BD4468DB
:10A4F0009CB353B104F1FF3C14EA0C0F18D11F2C8C
:10A5000016D907681CEA070F12D1202C0768D0F86B
:10A5100008C0D2B20FD9B4F1004F0ED8013CB4FA42
:10A5200084F4C4F11F046400072A4CEA040C06D921
:10A530006FF01502D9E70824F6E73E24F4E727F088
:10A540001F04144344F01004C6F89820C6F89C4039
:10A550004CF00104C6F8A040013201350C30C2E7CE
:10A5600000ED00E0044B0522C3F89420BFF34F8FA9
:10A57000BFF36F8F704700BF00ED00E0BFF35F8F48
:10A58000024B0022C3F89420704700BF00ED00E0AA
:10A5900010B5034C01232278FFF7A2FF207010BDF5
:10A5A000C53B002014490868082810B521D8FFF7DA
:10A5B000E5FF124C49680022904201F10C0105D1DF
:10A5C0000F4B1870FFF7CEFF002010BDC4F8982085
:10A5D00051F80C3C23F01F03134343F01003C4F85D
:10A5E0009C3051F8043C43F00103C4F8A030013220
:10A5F000E2E74FF0FF30E8E7A49B040000ED00E045
:10A60000C53B00200CB41FB509B90DF10300CDE91D
:10A61000020107AB069A0648019302A9FDF718FD4F
:10A62000029B00221A7005B05DF804EB02B070477F
:10A630002B4E04004FF02003EFF3118283F31288B6
:10A64000BFF36F8F06490123C1F840354FF08041B9
:10A65000C1F8783582F31188BFF36F8F00207047FF
:10A6600000E001404FF08043C0B2C3F81C05BFF3C7
:10A670004F8F0549054BCA6802F4E0621343CB6073
:10A68000BFF34F8F00BFFDE700ED00E00400FA05C7
:10A6900020B1034B800143F001031847704700BF0E
:10A6A0002098040070B5214CBFF35B8F2368BFF383
:10A6B0005B8FDA0706460D4601D50C2070BD0129D7
:10A6C00031D8BFF35B8F54E8003F43F0020244E807
:10A6D00000210029F7D1BFF35B8F9B07EDD414480D
:10A6E00031461AF038FC134806F120011AF033FC09
:10A6F000BFF35B8F75B154E8003F43F0040344E8B7
:10A700000032002AF7D1BFF35B8F0B4816F070FFC1
:10A710000020D3E754E8003F23F0040344E800326C
:10A72000002AF0D0F6E71220C8E700BF441C002042
:10A73000E63B0020063C0020AC0B00202DE9F04158
:10A740005F4F604D4FF0FF324FF0FF33384616F049
:10A7500075FFBFF35B8F2C68BFF35B8F14F00104B0
:10A7600055D0DFF86481594C594E5A48424621462B
:10A7700019F093F900283ED02022314620461AF0E5
:10A7800030FB0028F1D04FF000084FF0FF324FF0BF
:10A79000FF33012000F00EFA00F108060221044602
:10A7A00030461DF078FA3E230370422343700121A6
:10A7B00030461DF070FA08230370412130461DF029
:10A7C0006AFA064600F8018BB8F1000F16D0402255
:10A7D00000211AF021FBBFF35B8F55E8003F23F007
:10A7E000010345E80032002AF7D1BFF35B8F204612
:10A7F00000F028FEA6E74FF01F08C6E735491AF01B
:10A80000AAFB203106F121001AF0A5FBE3E7BFF314
:10A810005B8F2B68BFF35B8F9B0793D52A492D482D
:10A8200019F0F2FF002811DBBFF35B8F27492B687B
:10A830002748BFF35B8F13F0040F01F12002224B76
:10A8400018BF0146104619F077F904464FF0FF3261
:10A850004FF0FF33012000F0ADF900F108080221AC
:10A86000064640461DF017FA3E230370222343702C
:10A87000012140461DF00FFA0923037021214046B3
:10A880001DF009FA034601309CB91F221A70FF21FE
:10A8900020221AF0C1FABFF35B8F55E8003F23F086
:10A8A000020345E80032002AF7D1BFF35B8F304640
:10A8B0009EE7002207491A701AF04DFBEBE700BF34
:10A8C000AC0B0020441C0020C49B0400C63B0020AD
:10A8D00047B20400E63B002070B5067D044676B919
:10A8E00083681D8842F22602954245D00FD842F275
:10A8F000010295424FD042F225039D4213D02A4BCC
:10A90000D3F8543120461B69BDE87040184742F225
:10A910005E039D42F3D1032108301DF0DBF9A068EE
:10A9200090F840102EE0032108301DF0D3F92046A6
:10A9300012F004FCBFF35B8F1C4B1A68BFF35B8FF4
:10A94000920707D50C26314642F225001AF0DFFAAD
:10A95000002070BDBFF35B8F53E8002F42F0010170
:10A9600043E800100028F7D1BFF35B8FD307E9D489
:10A970000F4816F03DFEE6E7032108301DF0AAF966
:10A98000A0683146FFF78EFE0646204612F0D6FB41
:10A9900031462846DAE7DA7802F07F02DA701A796F
:10A9A00022F001021A71AAE700000020441C0020D6
:10A9B000AC0B002010B588B00C4C0D4900220023D0
:10A9C000CDE9062300230A22CDE90323CDE9013393
:10A9D00000934FF48F62074B204616F0C7FB0649E1
:10A9E000204608B0BDE810401DF091BF780E002051
:10A9F000183F00203DA7020040B20400034904486C
:10AA0000CA79C2EBC202FEF76DBE00BF0000002093
:10AA100067B20400F7B516461F46044620B96FF02A
:10AA20000104204603B0F0BD01A918F01EFF114932
:10AA3000024620461AF0C4F904460028EFD1BFF3BD
:10AA40005B8F0D4D2B68BFF35B8F5B07E9D4CC3D6B
:10AA5000072229463846B047062806D8072221464D
:10AA600028461AF0D9F9EC71DBE70723B0FBF3F0C5
:10AA7000E871D6E763B00400CC0000202DE9F04176
:10AA800088B09C79DDF838805D791E79DF7893F89D
:10AA900002C093F801E01B78B8F1000F0ED0CDE9A9
:10AAA0000638CDE904CE1346CDE90267CDE900456D
:10AAB000084A18F0D8F808B0BDE8F081CDE905E300
:10AAC000CDE9037C1346CDE90156034A009418F002
:10AAD000CAF8F0E76DB2040091B20400014816F024
:10AAE000FDBE00BF5403002010B5154CE379E3B15F
:10AAF000BFF35B8F134C2368BFF35B8F9B0701D4BD
:10AB000000F056FDBFF35B8F54E8000F20F4804344
:10AB100044E80032002AF7D1BFF35B8F10F4804085
:10AB20000DD0FFF7DBFF002009E000F0E7FF30B9B0
:10AB3000E379002BDCD101F021F80028D8D010BD3A
:10AB400000000020CC00002030B4034608461A78EC
:10AB5000012A13D0022A26D072B9154A02F1100434
:10AB600052F8045B41F8045BA242F9D15B88127889
:10AB70000A7043731B0A837330BC70470C4A02F19E
:10AB8000100452F8045B41F8045BA242F9D15B68FF
:10AB900012780A70C3F3072243731B0CC3731B0A9A
:10ABA00082730374E8E730BC112219461AF029B900
:10ABB000B2B2040038B5054605481DF00AF804464F
:10ABC00020B1002108301DF023F82575204638BD3E
:10ABD000EC0C00200B460B490246D1F8380110B5A9
:10ABE00020B9BDE810400120FFF7E4BF1DF021F8B7
:10ABF0000123002103758181044608301DF008F807
:10AC0000204610BD0000002070B504460F2C0D46F4
:10AC10001046194605D80D2C12D9BDE87040FFF733
:10AC2000D9BF132C0CD10B481CF0D3FF044628B11C
:10AC3000002108301CF0ECFF01232375204670BD75
:10AC400002460B460DB10448EEE7BDE87040012016
:10AC5000FFF7B0BF180D0020680C002038B58368DE
:10AC6000B3F801401B7863B9204601F0F1FC0546BA
:10AC700040B9084B1A8822B96FEA04506FEA1050A5
:10AC8000188038BD012101F0EBFC2846BDE83840B2
:10AC90001BF062B8443B002010B501210446083087
:10ACA0001DF020F82146034A0078BDE810400A2331
:10ACB0001AF0FEB9A49C040013B50C4C0146052201
:10ACC00094F8670001F0C6FE70B9094B18689A88BD
:10ACD00000909B79ADF8042094F867008DF8063059
:10ACE0000422694601F0B6FE02B010BD000000204B
:10ACF000CE970400F8B5074690790E46144612F038
:10AD000059F92D4B834255D1204612F05BF92B4D5A
:10AD10000C2303FB00504388BB424BD1284FD7F88C
:10AD2000380120B112F00AFA0023C7F83831204662
:10AD300012F048F90C2707FB00504368A3B19EB9F5
:10AD4000204612F03FF907FB005001234768D7E97E
:10AD5000002000F01F0103FA01F13B7A4009D3B152
:10AD600002EB80001AF0D1F9204612F02BF90C27E3
:10AD700007FB00508368EBB1204612F023F97843BB
:10AD80002E54204612F01EF907FB0055A868BDE8B6
:10AD9000F84016F02DBCCB4302EB8002BFF35B8F73
:10ADA00052E8000F184042E800010029F8D1BFF333
:10ADB0005B8FD9E7F8BD00BFC00C00204C1C002001
:10ADC0000000002038B50421044608301CF08AFF3A
:10ADD0004578017840882246FFF78CFF25B103486B
:10ADE000BDE8384016F004BC38BD00BF200100208B
:10ADF00038B50321044608301CF074FFA3680578B9
:10AE00001978B0F801002246FFF774FF25B1034816
:10AE1000BDE8384016F0ECBB38BD00BF2001002073
:10AE20002DE9F84FDFF80881DFF808A1D8F80C30D9
:10AE300041486FF35233C8F80C3001F0D5FB451C84
:10AE40003B484FF0FF324FF0FF33294617F02AFB03
:10AE500060B13A493A4840F69313524617F0F6FE6D
:10AE6000404080F311884FF0030002DFDFF8D490F8
:10AE70002F4EA9F59E77A9F11C0B15B917F018F8FC
:10AE8000D4E7F368C3F34533042B47D1337B002B5E
:10AE900047D10022002348461CF0A0FE044660B9BA
:10AEA0002949274840F62A13524617F0CFFE404062
:10AEB00080F311884FF0030002DF4FF0FF324FF0B4
:10AEC000FF33584616F0BAFBD7F8380120B112F01C
:10AED00035F90023C7F8383120461CF0AAFEC7F820
:10AEE00038012046FFF7F8FCC0B1184816F080FB87
:10AEF000204612F067F8164B0C2202FB00301F218F
:10AF000040882246FFF7F6FED7F8380112F016F90E
:10AF100000232046C7F8383112F010F91436013DED
:10AF2000ABE7012BFAD13069383801F07DFEF5E747
:10AF300064030020C3B2040078030020F7B20400C9
:10AF400000B304003C0100201DB3040020010020D8
:10AF50004C1C002010B5C1E900239DF808300B728D
:10AF60000C4612F02FF8034B0C2202FB00335C60FE
:10AF700010BD00BF4C1C00202DE9F0474FF0FF3200
:10AF80004FF0FF3306461748174D0F461CF021FEC1
:10AF9000044600F1080A00214FF0000850461CF05A
:10AFA00037FE84F81480204612F00CF84FF00C099C
:10AFB00009FB00504680204612F004F809FB0050BF
:10AFC000C0F80880204611F0FDFF09FB0055032161
:10AFD000C5F8048050461CF05EFE8770068020464F
:10AFE000BDE8F087C00C00204C1C002038B5054699
:10AFF0000C4619B9FFF7C0FF044698B140F6354337
:10B000009D4209D12046FFF767FC054610B1204656
:10B0100012F094F8284638BD044821461CF0FCFD87
:10B020000025F7E76FF06805F4E700BF3C0100205A
:10B03000F0B5154687B00C4621B9FFF79DFF0446D1
:10B04000002848D00122002168461DF049FD204615
:10B0500011F0B8FF214F0C2303FB0070C0F808D09B
:10B0600020461CF0E6FD01461D481CF0D5FD4FF4BE
:10B07000A0220023684616F0E1FA064680B1194A7C
:10B0800019491A4840F2311317F0E0FD18483146CB
:10B0900017F0DCFD404080F311884FF0030002DF21
:10B0A000204611F08FFF0C2358433E5C56B12046DA
:10B0B00012F044F8092E0CBF6FF06E006FF0040020
:10B0C00007B0F0BD15B12C603046F9E7204612F00C
:10B0D00035F82846F4E76FF06800F1E74C1C0020D3
:10B0E0003C010020C3B20400F7B2040000B3040026
:10B0F00021B304000138C0B202289ABF014B185C8A
:10B1000000207047CAB304007FB5437B072B044679
:10B110005AD1BFF35B8F4368BFF35B8F9B0400F191
:10B1200004061BD4C37823B1284B93F8D0301D07F5
:10B1300014D5022142F21600FFF71EFF054668B142
:10B14000022108301CF0A7FD23880380294642F223
:10B15000160004B0BDE87040FFF748BFBFF35B8F37
:10B1600063681A4DBFF35B8F13F4805FC3F3003144
:10B1700011D195F8D130D8070DD5022300911A4688
:10B1800020461AF0A0F930B98021304604B0BDE85D
:10B19000704019F0BABF95F8D0309A0614D5D5F89A
:10B1A00054319B689B070FD50DF10E0103A81AF0CF
:10B1B0003AF948B9BDF80E20BDF80C10204604B08D
:10B1C000BDE870401AF062B904B070BD0000002004
:10B1D0002DE9F043B0F801706B4A6FEA075311880C
:10B1E0006FEA13539BB2994205464FF0000608BF21
:10B1F000168085B008BF012600F0CAFA2C781FFA25
:10B2000087F804B33C2C59D100F0C6FDBFF35B8F27
:10B21000103050E8003F23F0400340E80032002A9D
:10B22000F7D1BFF35B8F0020FFF746FD05460028EE
:10B2300044D00473002101F013FA284605B0BDE89C
:10B24000F0431AF089BD2B79023B012B05F104096B
:10B2500037D80722494602A819F0D3FD9DF80830D7
:10B260000622023B05F111010DF101008DF80830B5
:10B2700019F0C7FD01238DF80030EB78012B19D1AF
:10B2800002A8FFF719FDEB78012B044611D100F05D
:10B2900083FDBFF35B8F00F1100353E8001F21F023
:10B2A000400143E80012002AF7D1BFF35B8F1AF088
:10B2B00084FCDCB91F2140461AF0CDF805B0BDE88A
:10B2C000F083EB78012B04BF304B93F8674049467D
:10B2D00020461AF0FAFA0722014602A819F091FD59
:10B2E00007224946684619F08CFDC6E7204607222A
:10B2F00020F8887B02A919F084FD2A7EEB7D43EAC1
:10B300000223A4F89E30AA7E6B7E43EA0223A4F8AF
:10B31000A4302A7FEB7E43EA0223A4F8A630EB7820
:10B32000E37000222273012B40F20112A4F8B8202E
:10B3300017D10722694604F18F0019F062FD00F071
:10B340002BFD217A114DC1EBC1010722294404F1E3
:10B35000960019F056FDD5F8DC305B0601D500F0FB
:10B36000C9FE0721204601F07BF91EB101212046CC
:10B3700001F076F920461AF02AFD2046FFF7C4FEB8
:10B3800020461AF0E9FC99E7443B00200000002029
:10B3900029289ABF014B185C09207047CDB30400DF
:10B3A0002DE9F041044600F1080630461CF0AAFCE5
:10B3B000B4F80C80B8F1010F05460CD81C4A1D49A1
:10B3C0001D4840F62F5317F041FC404080F3118890
:10B3D0004FF0030002DF304602211CF083FC0746D9
:10B3E000007819F053FEC20706460CD4104A1349E0
:10B3F000114840F6335317F029FC404080F3118880
:10B400004FF0030002DF05230D4A3878214619F07A
:10B410004FFEB30707D52369A4F80C8013FA85F50E
:10B42000A560BDE8F0812046BDE8F04111F086BE80
:10B43000C3B2040041B3040000B304005AB30400D3
:10B44000349D040070B53B4D2B68044613B916F0CB
:10B45000CBFD2860237D012B36D0032B63D1A3893C
:10B46000032B0CD8344A3549354840F2B51317F050
:10B47000EDFB404080F311884FF0030002DF042110
:10B4800004F108001CF02EFCFF2243880688627538
:10B49000A289C6F30B009A42E08203D0204611F045
:10B4A0004DFE0FE001F0D4F805460028F6D001F07B
:10B4B0007FF9320B6075214628461AF0E5FB2846D5
:10B4C0001AF04AFC002070BDA389012B0CD81A4A3F
:10B4D0001A491B4840F6171317F0B8FB404080F399
:10B4E00011884FF0030002DF022104F108001CF074
:10B4F000F9FB0546007819F0C9FD83070CD40E4A04
:10B5000010490F4840F61B1317F0A0FB404080F392
:10B5100011884FF0030002DF0B4A287806232146EA
:10B5200019F0C6FDBAE7204611F008FE6FF01500CD
:10B53000C9E700BF481C0020C3B2040041B30400A7
:10B5400000B3040073B30400049D040010B5037D30
:10B55000012B04460CD0094A09490A4840F67C539D
:10B5600017F074FB404080F311884FF0030002DFB6
:10B570002046FFF715FF002010BD00BFC3B2040036
:10B58000A1B3040000B30400084A0346D2F85401F2
:10B5900030B9D96839B1196929B1C2F85431704745
:10B5A0006FF0770070476FF01500704700000020C3
:10B5B0000148022119F0A9BDCC00002010B5FAF70E
:10B5C000BBFD034B1B6813B1BDE81040184710BD0D
:10B5D000641C002070B5224DD5F8543188B0064661
:10B5E000002B37D0012105F1CC0019F08EFDC307E7
:10B5F00033D419F0F2FC044648BB1A4B1E600022FB
:10B600000023CDE906236FF00803CDE90203CDE95D
:10B6100000000490144B154915484FF4207215F0A2
:10B62000A5FD144912481DF072F9FFF7C3F9D5F8CA
:10B630005431DB689847044648B926B908B0BDE8DC
:10B640007040FAF779BD05F1BC0016F047F92046C5
:10B6500008B070BD6FF01204F9E76FF07704F6E7F9
:10B6600000000020641C002021AE02009043002056
:10B67000F80E0020C4B3040000487047F1B0040085
:10B68000F8B50B4F06460025FB79ECB2A34202D871
:10B690006FF0010409E0C4EBC401072239443046CD
:10B6A00019F09FFB01350028EED12046F8BD00BF00
:10B6B0000000002038B514490622054619F091FB18
:10B6C0000446E0B1062142F20500FFF755FC0446AE
:10B6D000B8B10622294608301CF0E3FA21460022C0
:10B6E00042F20500FFF7A4FC044640B906220648D2
:10B6F000294619F086FB054B012283F8602020467D
:10B7000038BD6FF06804FAE76100002000000020F7
:10B7100030B5044685B00D46E1B10023072202A9E9
:10B7200028460293CDF80B3019F05BFB90B1164818
:10B73000C4EBC404294620441AF040F813481AF018
:10B7400040F88207C0F340031BD5FFF7C7F900207C
:10B7500005B030BD684619F08BFC0028F8D168466A
:10B76000FFF78EFF0028F5DA074BC4EBC4041C4436
:10B77000694620461AF022F8002DDFD021462846DF
:10B78000DAE71846E4E700BF00000020CC00002004
:10B790000A4BBFF35B8F53E8002F22F4005143E8BC
:10B7A00000100028F7D1BFF35B8F930404D5044940
:10B7B0000022022003F09ABF704700BFCC00002097
:10B7C00003590400F7B5474C94F8182194F819313F
:10B7D00005460AB19A4208D2013384F819312B7A0E
:10B7E00043F004032B7203B0F0BD0021062208468B
:10B7F00001F030F90646A8B1BFF35B8FCC3454E8B2
:10B80000003F43F4005344E80032002AF7D1BFF36D
:10B810005B8F2B7A43F001032B7203B0BDE8F0403D
:10B820001AF09ABA0146304800F0B0FA94F819318B
:10B83000B3B994F8192194F818319A421FD1002213
:10B84000114642F22900FFF7F3FB70B994F8193161
:10B85000013384F819312B7A43F004032B7204E08E
:10B86000304619F0FEFF0028E3D0012019F0F9FF5F
:10B870001E48002103B0BDE8F04000F087BA2A4618
:10B880006F1C12F82A0B394619F0B8FF064600283B
:10B89000EBD194F81931013384F819312B7A43F044
:10B8A00004032B7294F89F305B07DED53946684657
:10B8B00019F084FF0123082142F24E008DF8073071
:10B8C000FFF75AFB04460028CFD0082269461044EF
:10B8D0001CF0E7F93246214642F24E00FFF7A8FB82
:10B8E000C3E700BF0000002093580400CF570400B6
:10B8F0002DE9F0413C4C94F8182194F81931054693
:10B9000012B10132934208DD013B84F819312B7AE0
:10B9100023F004032B72BDE8F081002106220846C3
:10B9200001F098F80646A0B1BFF35B8FCC3454E821
:10B93000003F43F4005344E80032002AF7D1BFF33C
:10B940005B8F2B7A43F002032B72BDE8F0411AF0B3
:10B9500003BA0146254800F019FA304619F081FF74
:10B96000074688B994F8193194F818219A4217D2E9
:10B97000013B84F819312B7A1D4923F00403024658
:10B980002B72022003F0B2FE94F8193113B101209A
:10B9900019F067FFBDE8F0411648002100F0F6B944
:10B9A000072142F22800FFF7E7FA05F101080646F1
:10B9B0000028E9D0072108301CF06DF9414619F044
:10B9C000FDFE3A46314642F22800FFF731FB0028DF
:10B9D000DAD194F81931013B84F819312B7A23F02C
:10B9E00004032B72D0E700BF00000020935804002E
:10B9F0004D580400CF57040073B50C46054618B9DE
:10BA0000ECB16FF0150018E000230722694600939F
:10BA1000CDF8033019F0E5F90028F1D02B78012B8F
:10BA2000EFD1AB7903F0C003C02BEAD12846FFF772
:10BA300027FE0028E4DB6FF0770002B070BD124EE5
:10BA4000F379012B1CD006F1CC0019F0BAFEC30724
:10BA50000BD4002DD5D00722694628460094CDF896
:10BA6000034019F0BEF90028CBD0F4792946631CB5
:10BA70002046F371FFF74CFE002808BF2046DCE7A4
:10BA80006FF00B00D9E700BF0000002070B586B052
:10BA9000064601AA002141F20900FFF7C9FA04464F
:10BAA00070B9019B02909D68ADF80C00013506222B
:10BAB00002A9284619F095F920B9019811F03EFB2A
:10BAC000002016E00C4B186804909B88ADF81430E9
:10BAD000062204A9284619F084F90028EDD0062290
